{
  "contractName": "MockNFT",
  "abi": [
    {
      "inputs": [
        {
          "internalType": "string",
          "name": "tokenName",
          "type": "string"
        },
        {
          "internalType": "string",
          "name": "tokenSymbol",
          "type": "string"
        }
      ],
      "stateMutability": "nonpayable",
      "type": "constructor"
    },
    {
      "anonymous": false,
      "inputs": [
        {
          "indexed": true,
          "internalType": "address",
          "name": "owner",
          "type": "address"
        },
        {
          "indexed": true,
          "internalType": "address",
          "name": "approved",
          "type": "address"
        },
        {
          "indexed": true,
          "internalType": "uint256",
          "name": "tokenId",
          "type": "uint256"
        }
      ],
      "name": "Approval",
      "type": "event"
    },
    {
      "anonymous": false,
      "inputs": [
        {
          "indexed": true,
          "internalType": "address",
          "name": "owner",
          "type": "address"
        },
        {
          "indexed": true,
          "internalType": "address",
          "name": "operator",
          "type": "address"
        },
        {
          "indexed": false,
          "internalType": "bool",
          "name": "approved",
          "type": "bool"
        }
      ],
      "name": "ApprovalForAll",
      "type": "event"
    },
    {
      "anonymous": false,
      "inputs": [
        {
          "indexed": true,
          "internalType": "address",
          "name": "previousOwner",
          "type": "address"
        },
        {
          "indexed": true,
          "internalType": "address",
          "name": "newOwner",
          "type": "address"
        }
      ],
      "name": "OwnershipTransferred",
      "type": "event"
    },
    {
      "anonymous": false,
      "inputs": [
        {
          "indexed": false,
          "internalType": "string",
          "name": "name",
          "type": "string"
        },
        {
          "indexed": false,
          "internalType": "string",
          "name": "symbol",
          "type": "string"
        },
        {
          "indexed": false,
          "internalType": "string",
          "name": "tokenType",
          "type": "string"
        }
      ],
      "name": "TokenDeployed",
      "type": "event"
    },
    {
      "anonymous": false,
      "inputs": [
        {
          "indexed": true,
          "internalType": "address",
          "name": "from",
          "type": "address"
        },
        {
          "indexed": true,
          "internalType": "address",
          "name": "to",
          "type": "address"
        },
        {
          "indexed": true,
          "internalType": "uint256",
          "name": "tokenId",
          "type": "uint256"
        }
      ],
      "name": "Transfer",
      "type": "event"
    },
    {
      "inputs": [
        {
          "internalType": "address",
          "name": "to",
          "type": "address"
        },
        {
          "internalType": "uint256",
          "name": "tokenId",
          "type": "uint256"
        }
      ],
      "name": "approve",
      "outputs": [],
      "stateMutability": "nonpayable",
      "type": "function"
    },
    {
      "inputs": [
        {
          "internalType": "address",
          "name": "owner",
          "type": "address"
        }
      ],
      "name": "balanceOf",
      "outputs": [
        {
          "internalType": "uint256",
          "name": "",
          "type": "uint256"
        }
      ],
      "stateMutability": "view",
      "type": "function"
    },
    {
      "inputs": [],
      "name": "baseURI",
      "outputs": [
        {
          "internalType": "string",
          "name": "",
          "type": "string"
        }
      ],
      "stateMutability": "view",
      "type": "function"
    },
    {
      "inputs": [
        {
          "internalType": "bytes32",
          "name": "c__0xad825bce",
          "type": "bytes32"
        }
      ],
      "name": "c_0xad825bce",
      "outputs": [],
      "stateMutability": "pure",
      "type": "function"
    },
    {
      "inputs": [
        {
          "internalType": "uint256",
          "name": "tokenId",
          "type": "uint256"
        }
      ],
      "name": "getApproved",
      "outputs": [
        {
          "internalType": "address",
          "name": "",
          "type": "address"
        }
      ],
      "stateMutability": "view",
      "type": "function"
    },
    {
      "inputs": [
        {
          "internalType": "string",
          "name": "name",
          "type": "string"
        },
        {
          "internalType": "string",
          "name": "symbol",
          "type": "string"
        },
        {
          "internalType": "string",
          "name": "tokenType",
          "type": "string"
        }
      ],
      "name": "informDeployed",
      "outputs": [],
      "stateMutability": "nonpayable",
      "type": "function"
    },
    {
      "inputs": [
        {
          "internalType": "address",
          "name": "owner",
          "type": "address"
        },
        {
          "internalType": "address",
          "name": "operator",
          "type": "address"
        }
      ],
      "name": "isApprovedForAll",
      "outputs": [
        {
          "internalType": "bool",
          "name": "",
          "type": "bool"
        }
      ],
      "stateMutability": "view",
      "type": "function"
    },
    {
      "inputs": [
        {
          "internalType": "address",
          "name": "to",
          "type": "address"
        }
      ],
      "name": "mint",
      "outputs": [],
      "stateMutability": "nonpayable",
      "type": "function"
    },
    {
      "inputs": [],
      "name": "name",
      "outputs": [
        {
          "internalType": "string",
          "name": "",
          "type": "string"
        }
      ],
      "stateMutability": "view",
      "type": "function"
    },
    {
      "inputs": [],
      "name": "owner",
      "outputs": [
        {
          "internalType": "address",
          "name": "",
          "type": "address"
        }
      ],
      "stateMutability": "view",
      "type": "function"
    },
    {
      "inputs": [
        {
          "internalType": "uint256",
          "name": "tokenId",
          "type": "uint256"
        }
      ],
      "name": "ownerOf",
      "outputs": [
        {
          "internalType": "address",
          "name": "",
          "type": "address"
        }
      ],
      "stateMutability": "view",
      "type": "function"
    },
    {
      "inputs": [],
      "name": "renounceOwnership",
      "outputs": [],
      "stateMutability": "nonpayable",
      "type": "function"
    },
    {
      "inputs": [
        {
          "internalType": "address",
          "name": "from",
          "type": "address"
        },
        {
          "internalType": "address",
          "name": "to",
          "type": "address"
        },
        {
          "internalType": "uint256",
          "name": "tokenId",
          "type": "uint256"
        }
      ],
      "name": "safeTransferFrom",
      "outputs": [],
      "stateMutability": "nonpayable",
      "type": "function"
    },
    {
      "inputs": [
        {
          "internalType": "address",
          "name": "from",
          "type": "address"
        },
        {
          "internalType": "address",
          "name": "to",
          "type": "address"
        },
        {
          "internalType": "uint256",
          "name": "tokenId",
          "type": "uint256"
        },
        {
          "internalType": "bytes",
          "name": "_data",
          "type": "bytes"
        }
      ],
      "name": "safeTransferFrom",
      "outputs": [],
      "stateMutability": "nonpayable",
      "type": "function"
    },
    {
      "inputs": [
        {
          "internalType": "address",
          "name": "operator",
          "type": "address"
        },
        {
          "internalType": "bool",
          "name": "approved",
          "type": "bool"
        }
      ],
      "name": "setApprovalForAll",
      "outputs": [],
      "stateMutability": "nonpayable",
      "type": "function"
    },
    {
      "inputs": [
        {
          "internalType": "bytes4",
          "name": "interfaceId",
          "type": "bytes4"
        }
      ],
      "name": "supportsInterface",
      "outputs": [
        {
          "internalType": "bool",
          "name": "",
          "type": "bool"
        }
      ],
      "stateMutability": "view",
      "type": "function"
    },
    {
      "inputs": [],
      "name": "symbol",
      "outputs": [
        {
          "internalType": "string",
          "name": "",
          "type": "string"
        }
      ],
      "stateMutability": "view",
      "type": "function"
    },
    {
      "inputs": [
        {
          "internalType": "uint256",
          "name": "index",
          "type": "uint256"
        }
      ],
      "name": "tokenByIndex",
      "outputs": [
        {
          "internalType": "uint256",
          "name": "",
          "type": "uint256"
        }
      ],
      "stateMutability": "view",
      "type": "function"
    },
    {
      "inputs": [
        {
          "internalType": "address",
          "name": "owner",
          "type": "address"
        },
        {
          "internalType": "uint256",
          "name": "index",
          "type": "uint256"
        }
      ],
      "name": "tokenOfOwnerByIndex",
      "outputs": [
        {
          "internalType": "uint256",
          "name": "",
          "type": "uint256"
        }
      ],
      "stateMutability": "view",
      "type": "function"
    },
    {
      "inputs": [
        {
          "internalType": "uint256",
          "name": "tokenId",
          "type": "uint256"
        }
      ],
      "name": "tokenURI",
      "outputs": [
        {
          "internalType": "string",
          "name": "",
          "type": "string"
        }
      ],
      "stateMutability": "view",
      "type": "function"
    },
    {
      "inputs": [],
      "name": "totalSupply",
      "outputs": [
        {
          "internalType": "uint256",
          "name": "",
          "type": "uint256"
        }
      ],
      "stateMutability": "view",
      "type": "function"
    },
    {
      "inputs": [
        {
          "internalType": "address",
          "name": "from",
          "type": "address"
        },
        {
          "internalType": "address",
          "name": "to",
          "type": "address"
        },
        {
          "internalType": "uint256",
          "name": "tokenId",
          "type": "uint256"
        }
      ],
      "name": "transferFrom",
      "outputs": [],
      "stateMutability": "nonpayable",
      "type": "function"
    },
    {
      "inputs": [
        {
          "internalType": "address",
          "name": "newOwner",
          "type": "address"
        }
      ],
      "name": "transferOwnership",
      "outputs": [],
      "stateMutability": "nonpayable",
      "type": "function"
    },
    {
      "inputs": [
        {
          "internalType": "bytes32",
          "name": "c__0x6ba17f94",
          "type": "bytes32"
        }
      ],
      "name": "c_0x6ba17f94",
      "outputs": [],
      "stateMutability": "pure",
      "type": "function"
    }
  ],
  "bytecode": "0x60806040523480156200001157600080fd5b50604051620041c8380380620041c8833981810160405260408110156200003757600080fd5b81019080805160405193929190846401000000008211156200005857600080fd5b838201915060208201858111156200006f57600080fd5b82518660018202830111640100000000821117156200008d57600080fd5b8083526020830192505050908051906020019080838360005b83811015620000c3578082015181840152602081019050620000a6565b50505050905090810190601f168015620000f15780820380516001836020036101000a031916815260200191505b50604052602001805160405193929190846401000000008211156200011557600080fd5b838201915060208201858111156200012c57600080fd5b82518660018202830111640100000000821117156200014a57600080fd5b8083526020830192505050908051906020019080838360005b838110156200018057808201518184015260208101905062000163565b50505050905090810190601f168015620001ae5780820380516001836020036101000a031916815260200191505b5060405250505081818181620001d16301ffc9a760e01b620004c860201b60201c565b8160069080519060200190620001e992919062000d31565b5080600790805190602001906200020292919062000d31565b506200021b6380ac58cd60e01b620004c860201b60201c565b62000233635b5e139f60e01b620004c860201b60201c565b6200024b63780e9d6360e01b620004c860201b60201c565b505060006200025f620005d160201b60201c565b905080600a60006101000a81548173ffffffffffffffffffffffffffffffffffffffff021916908373ffffffffffffffffffffffffffffffffffffffff1602179055508073ffffffffffffffffffffffffffffffffffffffff16600073ffffffffffffffffffffffffffffffffffffffff167f8be0079c531659141344cd1fd0a4f28419497f9722a3daafe3b4186f6b6457e060405160405180910390a350620003327f0b539f053524ea98f3921bcecf2c1171fce23ba29acfe1fa39bf145fce6a277760001b620005d960201b60201c565b620003667f324961cdc29c0b75e15272499b5fe0e4e490a865d290dc07de2e37bbab688a2b60001b620005d960201b60201c565b6200039a7f07ac65568f073191708f6db621eb9892b3dc32d2ea2b91d0d1d00b819a7ef9e660001b620005d960201b60201c565b620003e282826040518060400160405280602081526020017f455243323020746f6b656e206372656174656420616e64206465706c6f796564815250620005dc60201b60201c565b620004167f8ab0f03de584c1bb9d78cda80a65798bfa9deb2dcc8b3e9d82ae9d206adbc2de60001b620005d960201b60201c565b6200044a7f16315694e84f02bcaf82e319b29dc4b93b3c1741df76954b65d006d0eee392bf60001b620005d960201b60201c565b6200048a3362000479600162000465620007fc60201b60201c565b6200081a60201b62001f051790919060201c565b620008a360201b62001f8d1760201c565b5050620004c07fba9416f85e6a4018070d46e1dfffac0b75aff416c18decf63b435a3354b5184860001b62000ab760201b60201c565b505062000dd7565b63ffffffff60e01b817bffffffffffffffffffffffffffffffffffffffffffffffffffffffff1916141562000565576040517f08c379a000000000000000000000000000000000000000000000000000000000815260040180806020018281038252601c8152602001807f4552433136353a20696e76616c696420696e746572666163652069640000000081525060200191505060405180910390fd5b6001600080837bffffffffffffffffffffffffffffffffffffffffffffffffffffffff19167bffffffffffffffffffffffffffffffffffffffffffffffffffffffff1916815260200190815260200160002060006101000a81548160ff02191690831515021790555050565b600033905090565b50565b620006107f511a61dda44b0ee02e52517a81435af0f945fd51728869895d357172de21c81360001b620005d960201b60201c565b620006447fd2fd0c05fbd025e50f902649ea49b60a5783f75f9724e0d468cf51ac6ffe66b160001b620005d960201b60201c565b620006787f5761116669f214cd604b101003c164f649258886c7590ec0f9e02422197b7b0d60001b620005d960201b60201c565b7fd0b4bb6c4e82ab4cb1abce8ec75c64d146f2791d3694c99caaf12b68d06f73f983838360405180806020018060200180602001848103845287818151815260200191508051906020019080838360005b83811015620006e6578082015181840152602081019050620006c9565b50505050905090810190601f168015620007145780820380516001836020036101000a031916815260200191505b50848103835286818151815260200191508051906020019080838360005b838110156200074f57808201518184015260208101905062000732565b50505050905090810190601f1680156200077d5780820380516001836020036101000a031916815260200191505b50848103825285818151815260200191508051906020019080838360005b83811015620007b85780820151818401526020810190506200079b565b50505050905090810190601f168015620007e65780820380516001836020036101000a031916815260200191505b50965050505050505060405180910390a1505050565b600062000815600262000aba60201b620021811760201c565b905090565b60008082840190508381101562000899576040517f08c379a000000000000000000000000000000000000000000000000000000000815260040180806020018281038252601b8152602001807f536166654d6174683a206164646974696f6e206f766572666c6f77000000000081525060200191505060405180910390fd5b8091505092915050565b600073ffffffffffffffffffffffffffffffffffffffff168273ffffffffffffffffffffffffffffffffffffffff16141562000947576040517f08c379a00000000000000000000000000000000000000000000000000000000081526004018080602001828103825260208152602001807f4552433732313a206d696e7420746f20746865207a65726f206164647265737381525060200191505060405180910390fd5b620009588162000ad760201b60201c565b15620009cc576040517f08c379a000000000000000000000000000000000000000000000000000000000815260040180806020018281038252601c8152602001807f4552433732313a20746f6b656e20616c7265616479206d696e7465640000000081525060200191505060405180910390fd5b620009e06000838362000afb60201b60201c565b62000a3881600160008573ffffffffffffffffffffffffffffffffffffffff1673ffffffffffffffffffffffffffffffffffffffff16815260200190815260200160002062000b0060201b620021961790919060201c565b5062000a568183600262000b2260201b620021b0179092919060201c565b50808273ffffffffffffffffffffffffffffffffffffffff16600073ffffffffffffffffffffffffffffffffffffffff167fddf252ad1be2c89b69c2b068fc378daa952ba7f163c4a11628f55a4df523b3ef60405160405180910390a45050565b50565b600062000ad08260000162000b5f60201b60201c565b9050919050565b600062000af482600262000b7060201b620021e51790919060201c565b9050919050565b505050565b600062000b1a836000018360001b62000b9260201b60201c565b905092915050565b600062000b56846000018460001b8473ffffffffffffffffffffffffffffffffffffffff1660001b62000c0c60201b60201c565b90509392505050565b600081600001805490509050919050565b600062000b8a836000018360001b62000ceb60201b60201c565b905092915050565b600062000ba6838362000d0e60201b60201c565b62000c0157826000018290806001815401808255809150506001900390600052602060002001600090919091909150558260000180549050836001016000848152602001908152602001600020819055506001905062000c06565b600090505b92915050565b600080846001016000858152602001908152602001600020549050600081141562000cb55784600001604051806040016040528086815260200185815250908060018154018082558091505060019003906000526020600020906002020160009091909190915060008201518160000155602082015181600101555050846000018054905085600101600086815260200190815260200160002081905550600191505062000ce4565b8285600001600183038154811062000cc957fe5b90600052602060002090600202016001018190555060009150505b9392505050565b600080836001016000848152602001908152602001600020541415905092915050565b600080836001016000848152602001908152602001600020541415905092915050565b828054600181600116156101000203166002900490600052602060002090601f016020900481019282601f1062000d7457805160ff191683800117855562000da5565b8280016001018555821562000da5579182015b8281111562000da457825182559160200191906001019062000d87565b5b50905062000db4919062000db8565b5090565b5b8082111562000dd357600081600090555060010162000db9565b5090565b6133e18062000de76000396000f3fe608060405234801561001057600080fd5b50600436106101585760003560e01c80636a627842116100c357806395d89b411161007c57806395d89b4114610881578063a22cb46514610904578063b88d4fde14610954578063c87b56dd14610a59578063e985e9c514610b00578063f2fde38b14610b7a57610158565b80636a627842146106f65780636c0360eb1461073a57806370a08231146107bd578063715018a61461081557806388fdc42b1461081f5780638da5cb5b1461084d57610158565b806323b872dd1161011557806323b872dd146104f05780632b54f63f1461055e5780632f745c591461058c57806342842e0e146105ee5780634f6ccce71461065c5780636352211e1461069e57610158565b806301ffc9a71461015d57806306fdde03146101c0578063081812fc14610243578063095ea7b31461029b5780631483fb1e146102e957806318160ddd146104d2575b600080fd5b6101a86004803603602081101561017357600080fd5b8101908080357bffffffffffffffffffffffffffffffffffffffffffffffffffffffff19169060200190929190505050610bbe565b60405180821515815260200191505060405180910390f35b6101c8610c25565b6040518080602001828103825283818151815260200191508051906020019080838360005b838110156102085780820151818401526020810190506101ed565b50505050905090810190601f1680156102355780820380516001836020036101000a031916815260200191505b509250505060405180910390f35b61026f6004803603602081101561025957600080fd5b8101908080359060200190929190505050610cc7565b604051808273ffffffffffffffffffffffffffffffffffffffff16815260200191505060405180910390f35b6102e7600480360360408110156102b157600080fd5b81019080803573ffffffffffffffffffffffffffffffffffffffff16906020019092919080359060200190929190505050610d62565b005b6104d0600480360360608110156102ff57600080fd5b810190808035906020019064010000000081111561031c57600080fd5b82018360208201111561032e57600080fd5b8035906020019184600183028401116401000000008311171561035057600080fd5b91908080601f016020809104026020016040519081016040528093929190818152602001838380828437600081840152601f19601f820116905080830192505050505050509192919290803590602001906401000000008111156103b357600080fd5b8201836020820111156103c557600080fd5b803590602001918460018302840111640100000000831117156103e757600080fd5b91908080601f016020809104026020016040519081016040528093929190818152602001838380828437600081840152601f19601f8201169050808301925050505050505091929192908035906020019064010000000081111561044a57600080fd5b82018360208201111561045c57600080fd5b8035906020019184600183028401116401000000008311171561047e57600080fd5b91908080601f016020809104026020016040519081016040528093929190818152602001838380828437600081840152601f19601f820116905080830192505050505050509192919290505050610ea6565b005b6104da6110a5565b6040518082815260200191505060405180910390f35b61055c6004803603606081101561050657600080fd5b81019080803573ffffffffffffffffffffffffffffffffffffffff169060200190929190803573ffffffffffffffffffffffffffffffffffffffff169060200190929190803590602001909291905050506110b6565b005b61058a6004803603602081101561057457600080fd5b810190808035906020019092919050505061112c565b005b6105d8600480360360408110156105a257600080fd5b81019080803573ffffffffffffffffffffffffffffffffffffffff1690602001909291908035906020019092919050505061112f565b6040518082815260200191505060405180910390f35b61065a6004803603606081101561060457600080fd5b81019080803573ffffffffffffffffffffffffffffffffffffffff169060200190929190803573ffffffffffffffffffffffffffffffffffffffff1690602001909291908035906020019092919050505061118a565b005b6106886004803603602081101561067257600080fd5b81019080803590602001909291905050506111aa565b6040518082815260200191505060405180910390f35b6106ca600480360360208110156106b457600080fd5b81019080803590602001909291905050506111cd565b604051808273ffffffffffffffffffffffffffffffffffffffff16815260200191505060405180910390f35b6107386004803603602081101561070c57600080fd5b81019080803573ffffffffffffffffffffffffffffffffffffffff169060200190929190505050611204565b005b610742611379565b6040518080602001828103825283818151815260200191508051906020019080838360005b83811015610782578082015181840152602081019050610767565b50505050905090810190601f1680156107af5780820380516001836020036101000a031916815260200191505b509250505060405180910390f35b6107ff600480360360208110156107d357600080fd5b81019080803573ffffffffffffffffffffffffffffffffffffffff16906020019092919050505061141b565b6040518082815260200191505060405180910390f35b61081d6114f0565b005b61084b6004803603602081101561083557600080fd5b810190808035906020019092919050505061167b565b005b61085561167e565b604051808273ffffffffffffffffffffffffffffffffffffffff16815260200191505060405180910390f35b6108896116a8565b6040518080602001828103825283818151815260200191508051906020019080838360005b838110156108c95780820151818401526020810190506108ae565b50505050905090810190601f1680156108f65780820380516001836020036101000a031916815260200191505b509250505060405180910390f35b6109526004803603604081101561091a57600080fd5b81019080803573ffffffffffffffffffffffffffffffffffffffff16906020019092919080351515906020019092919050505061174a565b005b610a576004803603608081101561096a57600080fd5b81019080803573ffffffffffffffffffffffffffffffffffffffff169060200190929190803573ffffffffffffffffffffffffffffffffffffffff16906020019092919080359060200190929190803590602001906401000000008111156109d157600080fd5b8201836020820111156109e357600080fd5b80359060200191846001830284011164010000000083111715610a0557600080fd5b91908080601f016020809104026020016040519081016040528093929190818152602001838380828437600081840152601f19601f820116905080830192505050505050509192919290505050611900565b005b610a8560048036036020811015610a6f57600080fd5b8101908080359060200190929190505050611978565b6040518080602001828103825283818151815260200191508051906020019080838360005b83811015610ac5578082015181840152602081019050610aaa565b50505050905090810190601f168015610af25780820380516001836020036101000a031916815260200191505b509250505060405180910390f35b610b6260048036036040811015610b1657600080fd5b81019080803573ffffffffffffffffffffffffffffffffffffffff169060200190929190803573ffffffffffffffffffffffffffffffffffffffff169060200190929190505050611c61565b60405180821515815260200191505060405180910390f35b610bbc60048036036020811015610b9057600080fd5b81019080803573ffffffffffffffffffffffffffffffffffffffff169060200190929190505050611cf5565b005b6000806000837bffffffffffffffffffffffffffffffffffffffffffffffffffffffff19167bffffffffffffffffffffffffffffffffffffffffffffffffffffffff1916815260200190815260200160002060009054906101000a900460ff169050919050565b606060068054600181600116156101000203166002900480601f016020809104026020016040519081016040528092919081815260200182805460018160011615610100020316600290048015610cbd5780601f10610c9257610100808354040283529160200191610cbd565b820191906000526020600020905b815481529060010190602001808311610ca057829003601f168201915b5050505050905090565b6000610cd2826121ff565b610d27576040517f08c379a000000000000000000000000000000000000000000000000000000000815260040180806020018281038252602c8152602001806132d6602c913960400191505060405180910390fd5b6004600083815260200190815260200160002060009054906101000a900473ffffffffffffffffffffffffffffffffffffffff169050919050565b6000610d6d826111cd565b90508073ffffffffffffffffffffffffffffffffffffffff168373ffffffffffffffffffffffffffffffffffffffff161415610df4576040517f08c379a000000000000000000000000000000000000000000000000000000000815260040180806020018281038252602181526020018061335a6021913960400191505060405180910390fd5b8073ffffffffffffffffffffffffffffffffffffffff16610e1361221c565b73ffffffffffffffffffffffffffffffffffffffff161480610e425750610e4181610e3c61221c565b611c61565b5b610e97576040517f08c379a00000000000000000000000000000000000000000000000000000000081526004018080602001828103825260388152602001806132296038913960400191505060405180910390fd5b610ea18383612224565b505050565b610ed27f511a61dda44b0ee02e52517a81435af0f945fd51728869895d357172de21c81360001b61167b565b610efe7fd2fd0c05fbd025e50f902649ea49b60a5783f75f9724e0d468cf51ac6ffe66b160001b61167b565b610f2a7f5761116669f214cd604b101003c164f649258886c7590ec0f9e02422197b7b0d60001b61167b565b7fd0b4bb6c4e82ab4cb1abce8ec75c64d146f2791d3694c99caaf12b68d06f73f983838360405180806020018060200180602001848103845287818151815260200191508051906020019080838360005b83811015610f96578082015181840152602081019050610f7b565b50505050905090810190601f168015610fc35780820380516001836020036101000a031916815260200191505b50848103835286818151815260200191508051906020019080838360005b83811015610ffc578082015181840152602081019050610fe1565b50505050905090810190601f1680156110295780820380516001836020036101000a031916815260200191505b50848103825285818151815260200191508051906020019080838360005b83811015611062578082015181840152602081019050611047565b50505050905090810190601f16801561108f5780820380516001836020036101000a031916815260200191505b50965050505050505060405180910390a1505050565b60006110b16002612181565b905090565b6110c76110c161221c565b826122dd565b61111c576040517f08c379a000000000000000000000000000000000000000000000000000000000815260040180806020018281038252603181526020018061337b6031913960400191505060405180910390fd5b6111278383836123d1565b505050565b50565b600061118282600160008673ffffffffffffffffffffffffffffffffffffffff1673ffffffffffffffffffffffffffffffffffffffff16815260200190815260200160002061261490919063ffffffff16565b905092915050565b6111a583838360405180602001604052806000815250611900565b505050565b6000806111c183600261262e90919063ffffffff16565b50905080915050919050565b60006111fd8260405180606001604052806029815260200161328b60299139600261265a9092919063ffffffff16565b9050919050565b61120c61221c565b73ffffffffffffffffffffffffffffffffffffffff16600a60009054906101000a900473ffffffffffffffffffffffffffffffffffffffff1673ffffffffffffffffffffffffffffffffffffffff16146112ce576040517f08c379a00000000000000000000000000000000000000000000000000000000081526004018080602001828103825260208152602001807f4f776e61626c653a2063616c6c6572206973206e6f7420746865206f776e657281525060200191505060405180910390fd5b6112fa7f5ad3cb0f8ce5da7363cc0b59b2eda68b775484fdbff6eba22e2927098c2ef5aa60001b61167b565b6113267f19df706a686e171c2ca552a2b1bc78f0dd12ab992adb469704697cb06187970460001b61167b565b6113527f02959acb06e851616b960fde31fb036812cc9c822768c61329f70e58de330ce160001b61167b565b6113768161137160016113636110a5565b611f0590919063ffffffff16565b611f8d565b50565b606060098054600181600116156101000203166002900480601f0160208091040260200160405190810160405280929190818152602001828054600181600116156101000203166002900480156114115780601f106113e657610100808354040283529160200191611411565b820191906000526020600020905b8154815290600101906020018083116113f457829003601f168201915b5050505050905090565b60008073ffffffffffffffffffffffffffffffffffffffff168273ffffffffffffffffffffffffffffffffffffffff1614156114a2576040517f08c379a000000000000000000000000000000000000000000000000000000000815260040180806020018281038252602a815260200180613261602a913960400191505060405180910390fd5b6114e9600160008473ffffffffffffffffffffffffffffffffffffffff1673ffffffffffffffffffffffffffffffffffffffff168152602001908152602001600020612679565b9050919050565b6114f861221c565b73ffffffffffffffffffffffffffffffffffffffff16600a60009054906101000a900473ffffffffffffffffffffffffffffffffffffffff1673ffffffffffffffffffffffffffffffffffffffff16146115ba576040517f08c379a00000000000000000000000000000000000000000000000000000000081526004018080602001828103825260208152602001807f4f776e61626c653a2063616c6c6572206973206e6f7420746865206f776e657281525060200191505060405180910390fd5b600073ffffffffffffffffffffffffffffffffffffffff16600a60009054906101000a900473ffffffffffffffffffffffffffffffffffffffff1673ffffffffffffffffffffffffffffffffffffffff167f8be0079c531659141344cd1fd0a4f28419497f9722a3daafe3b4186f6b6457e060405160405180910390a36000600a60006101000a81548173ffffffffffffffffffffffffffffffffffffffff021916908373ffffffffffffffffffffffffffffffffffffffff160217905550565b50565b6000600a60009054906101000a900473ffffffffffffffffffffffffffffffffffffffff16905090565b606060078054600181600116156101000203166002900480601f0160208091040260200160405190810160405280929190818152602001828054600181600116156101000203166002900480156117405780601f1061171557610100808354040283529160200191611740565b820191906000526020600020905b81548152906001019060200180831161172357829003601f168201915b5050505050905090565b61175261221c565b73ffffffffffffffffffffffffffffffffffffffff168273ffffffffffffffffffffffffffffffffffffffff1614156117f3576040517f08c379a00000000000000000000000000000000000000000000000000000000081526004018080602001828103825260198152602001807f4552433732313a20617070726f766520746f2063616c6c65720000000000000081525060200191505060405180910390fd5b806005600061180061221c565b73ffffffffffffffffffffffffffffffffffffffff1673ffffffffffffffffffffffffffffffffffffffff16815260200190815260200160002060008473ffffffffffffffffffffffffffffffffffffffff1673ffffffffffffffffffffffffffffffffffffffff16815260200190815260200160002060006101000a81548160ff0219169083151502179055508173ffffffffffffffffffffffffffffffffffffffff166118ad61221c565b73ffffffffffffffffffffffffffffffffffffffff167f17307eab39ab6107e8899845ad3d59bd9653f200f220920489ca2b5937696c318360405180821515815260200191505060405180910390a35050565b61191161190b61221c565b836122dd565b611966576040517f08c379a000000000000000000000000000000000000000000000000000000000815260040180806020018281038252603181526020018061337b6031913960400191505060405180910390fd5b6119728484848461268e565b50505050565b6060611983826121ff565b6119d8576040517f08c379a000000000000000000000000000000000000000000000000000000000815260040180806020018281038252602f81526020018061332b602f913960400191505060405180910390fd5b6060600860008481526020019081526020016000208054600181600116156101000203166002900480601f016020809104026020016040519081016040528092919081815260200182805460018160011615610100020316600290048015611a815780601f10611a5657610100808354040283529160200191611a81565b820191906000526020600020905b815481529060010190602001808311611a6457829003601f168201915b50505050509050600060098054600181600116156101000203166002900490501415611ab05780915050611c5c565b600081511115611b89576009816040516020018083805460018160011615610100020316600290048015611b1b5780601f10611af9576101008083540402835291820191611b1b565b820191906000526020600020905b815481529060010190602001808311611b07575b505082805190602001908083835b60208310611b4c5780518252602082019150602081019050602083039250611b29565b6001836020036101000a03801982511681845116808217855250505050505090500192505050604051602081830303815290604052915050611c5c565b6009611b9484612700565b6040516020018083805460018160011615610100020316600290048015611bf25780601f10611bd0576101008083540402835291820191611bf2565b820191906000526020600020905b815481529060010190602001808311611bde575b505082805190602001908083835b60208310611c235780518252602082019150602081019050602083039250611c00565b6001836020036101000a038019825116818451168082178552505050505050905001925050506040516020818303038152906040529150505b919050565b6000600560008473ffffffffffffffffffffffffffffffffffffffff1673ffffffffffffffffffffffffffffffffffffffff16815260200190815260200160002060008373ffffffffffffffffffffffffffffffffffffffff1673ffffffffffffffffffffffffffffffffffffffff16815260200190815260200160002060009054906101000a900460ff16905092915050565b611cfd61221c565b73ffffffffffffffffffffffffffffffffffffffff16600a60009054906101000a900473ffffffffffffffffffffffffffffffffffffffff1673ffffffffffffffffffffffffffffffffffffffff1614611dbf576040517f08c379a00000000000000000000000000000000000000000000000000000000081526004018080602001828103825260208152602001807f4f776e61626c653a2063616c6c6572206973206e6f7420746865206f776e657281525060200191505060405180910390fd5b600073ffffffffffffffffffffffffffffffffffffffff168173ffffffffffffffffffffffffffffffffffffffff161415611e45576040517f08c379a00000000000000000000000000000000000000000000000000000000081526004018080602001828103825260268152602001806131b36026913960400191505060405180910390fd5b8073ffffffffffffffffffffffffffffffffffffffff16600a60009054906101000a900473ffffffffffffffffffffffffffffffffffffffff1673ffffffffffffffffffffffffffffffffffffffff167f8be0079c531659141344cd1fd0a4f28419497f9722a3daafe3b4186f6b6457e060405160405180910390a380600a60006101000a81548173ffffffffffffffffffffffffffffffffffffffff021916908373ffffffffffffffffffffffffffffffffffffffff16021790555050565b600080828401905083811015611f83576040517f08c379a000000000000000000000000000000000000000000000000000000000815260040180806020018281038252601b8152602001807f536166654d6174683a206164646974696f6e206f766572666c6f77000000000081525060200191505060405180910390fd5b8091505092915050565b600073ffffffffffffffffffffffffffffffffffffffff168273ffffffffffffffffffffffffffffffffffffffff161415612030576040517f08c379a00000000000000000000000000000000000000000000000000000000081526004018080602001828103825260208152602001807f4552433732313a206d696e7420746f20746865207a65726f206164647265737381525060200191505060405180910390fd5b612039816121ff565b156120ac576040517f08c379a000000000000000000000000000000000000000000000000000000000815260040180806020018281038252601c8152602001807f4552433732313a20746f6b656e20616c7265616479206d696e7465640000000081525060200191505060405180910390fd5b6120b860008383612847565b61210981600160008573ffffffffffffffffffffffffffffffffffffffff1673ffffffffffffffffffffffffffffffffffffffff16815260200190815260200160002061219690919063ffffffff16565b50612120818360026121b09092919063ffffffff16565b50808273ffffffffffffffffffffffffffffffffffffffff16600073ffffffffffffffffffffffffffffffffffffffff167fddf252ad1be2c89b69c2b068fc378daa952ba7f163c4a11628f55a4df523b3ef60405160405180910390a45050565b600061218f8260000161284c565b9050919050565b60006121a8836000018360001b61285d565b905092915050565b60006121dc846000018460001b8473ffffffffffffffffffffffffffffffffffffffff1660001b6128cd565b90509392505050565b60006121f7836000018360001b6129a9565b905092915050565b60006122158260026121e590919063ffffffff16565b9050919050565b600033905090565b816004600083815260200190815260200160002060006101000a81548173ffffffffffffffffffffffffffffffffffffffff021916908373ffffffffffffffffffffffffffffffffffffffff160217905550808273ffffffffffffffffffffffffffffffffffffffff16612297836111cd565b73ffffffffffffffffffffffffffffffffffffffff167f8c5be1e5ebec7d5bd14f71427d1e84f3dd0314c0f7b2291e5b200ac8c7c3b92560405160405180910390a45050565b60006122e8826121ff565b61233d576040517f08c379a000000000000000000000000000000000000000000000000000000000815260040180806020018281038252602c8152602001806131fd602c913960400191505060405180910390fd5b6000612348836111cd565b90508073ffffffffffffffffffffffffffffffffffffffff168473ffffffffffffffffffffffffffffffffffffffff1614806123b757508373ffffffffffffffffffffffffffffffffffffffff1661239f84610cc7565b73ffffffffffffffffffffffffffffffffffffffff16145b806123c857506123c78185611c61565b5b91505092915050565b8273ffffffffffffffffffffffffffffffffffffffff166123f1826111cd565b73ffffffffffffffffffffffffffffffffffffffff161461245d576040517f08c379a00000000000000000000000000000000000000000000000000000000081526004018080602001828103825260298152602001806133026029913960400191505060405180910390fd5b600073ffffffffffffffffffffffffffffffffffffffff168273ffffffffffffffffffffffffffffffffffffffff1614156124e3576040517f08c379a00000000000000000000000000000000000000000000000000000000081526004018080602001828103825260248152602001806131d96024913960400191505060405180910390fd5b6124ee838383612847565b6124f9600082612224565b61254a81600160008673ffffffffffffffffffffffffffffffffffffffff1673ffffffffffffffffffffffffffffffffffffffff1681526020019081526020016000206129cc90919063ffffffff16565b5061259c81600160008573ffffffffffffffffffffffffffffffffffffffff1673ffffffffffffffffffffffffffffffffffffffff16815260200190815260200160002061219690919063ffffffff16565b506125b3818360026121b09092919063ffffffff16565b50808273ffffffffffffffffffffffffffffffffffffffff168473ffffffffffffffffffffffffffffffffffffffff167fddf252ad1be2c89b69c2b068fc378daa952ba7f163c4a11628f55a4df523b3ef60405160405180910390a4505050565b600061262383600001836129e6565b60001c905092915050565b6000806000806126418660000186612a69565b915091508160001c8160001c9350935050509250929050565b600061266d846000018460001b84612b02565b60001c90509392505050565b600061268782600001612bf8565b9050919050565b6126998484846123d1565b6126a584848484612c09565b6126fa576040517f08c379a00000000000000000000000000000000000000000000000000000000081526004018080602001828103825260328152602001806131816032913960400191505060405180910390fd5b50505050565b60606000821415612748576040518060400160405280600181526020017f30000000000000000000000000000000000000000000000000000000000000008152509050612842565b600082905060005b60008214612772578080600101915050600a828161276a57fe5b049150612750565b60608167ffffffffffffffff8111801561278b57600080fd5b506040519080825280601f01601f1916602001820160405280156127be5781602001600182028036833780820191505090505b50905060006001830390508593505b6000841461283a57600a84816127df57fe5b0660300160f81b828280600190039350815181106127f957fe5b60200101907effffffffffffffffffffffffffffffffffffffffffffffffffffffffffffff1916908160001a905350600a848161283257fe5b0493506127cd565b819450505050505b919050565b505050565b600081600001805490509050919050565b60006128698383612e22565b6128c25782600001829080600181540180825580915050600190039060005260206000200160009091909190915055826000018054905083600101600084815260200190815260200160002081905550600190506128c7565b600090505b92915050565b6000808460010160008581526020019081526020016000205490506000811415612974578460000160405180604001604052808681526020018581525090806001815401808255809150506001900390600052602060002090600202016000909190919091506000820151816000015560208201518160010155505084600001805490508560010160008681526020019081526020016000208190555060019150506129a2565b8285600001600183038154811061298757fe5b90600052602060002090600202016001018190555060009150505b9392505050565b600080836001016000848152602001908152602001600020541415905092915050565b60006129de836000018360001b612e45565b905092915050565b600081836000018054905011612a47576040517f08c379a000000000000000000000000000000000000000000000000000000000815260040180806020018281038252602281526020018061315f6022913960400191505060405180910390fd5b826000018281548110612a5657fe5b9060005260206000200154905092915050565b60008082846000018054905011612acb576040517f08c379a00000000000000000000000000000000000000000000000000000000081526004018080602001828103825260228152602001806132b46022913960400191505060405180910390fd5b6000846000018481548110612adc57fe5b906000526020600020906002020190508060000154816001015492509250509250929050565b60008084600101600085815260200190815260200160002054905060008114158390612bc9576040517f08c379a00000000000000000000000000000000000000000000000000000000081526004018080602001828103825283818151815260200191508051906020019080838360005b83811015612b8e578082015181840152602081019050612b73565b50505050905090810190601f168015612bbb5780820380516001836020036101000a031916815260200191505b509250505060405180910390fd5b50846000016001820381548110612bdc57fe5b9060005260206000209060020201600101549150509392505050565b600081600001805490509050919050565b6000612c2a8473ffffffffffffffffffffffffffffffffffffffff16612f2d565b612c375760019050612e1a565b6060612da163150b7a0260e01b612c4c61221c565b888787604051602401808573ffffffffffffffffffffffffffffffffffffffff1681526020018473ffffffffffffffffffffffffffffffffffffffff16815260200183815260200180602001828103825283818151815260200191508051906020019080838360005b83811015612cd0578082015181840152602081019050612cb5565b50505050905090810190601f168015612cfd5780820380516001836020036101000a031916815260200191505b5095505050505050604051602081830303815290604052907bffffffffffffffffffffffffffffffffffffffffffffffffffffffff19166020820180517bffffffffffffffffffffffffffffffffffffffffffffffffffffffff8381831617835250505050604051806060016040528060328152602001613181603291398773ffffffffffffffffffffffffffffffffffffffff16612f409092919063ffffffff16565b90506000818060200190516020811015612dba57600080fd5b8101908080519060200190929190505050905063150b7a0260e01b7bffffffffffffffffffffffffffffffffffffffffffffffffffffffff1916817bffffffffffffffffffffffffffffffffffffffffffffffffffffffff191614925050505b949350505050565b600080836001016000848152602001908152602001600020541415905092915050565b60008083600101600084815260200190815260200160002054905060008114612f215760006001820390506000600186600001805490500390506000866000018281548110612e9057fe5b9060005260206000200154905080876000018481548110612ead57fe5b9060005260206000200181905550600183018760010160008381526020019081526020016000208190555086600001805480612ee557fe5b60019003818190600052602060002001600090559055866001016000878152602001908152602001600020600090556001945050505050612f27565b60009150505b92915050565b600080823b905060008111915050919050565b6060612f4f8484600085612f58565b90509392505050565b6060612f6385612f2d565b612fd5576040517f08c379a000000000000000000000000000000000000000000000000000000000815260040180806020018281038252601d8152602001807f416464726573733a2063616c6c20746f206e6f6e2d636f6e747261637400000081525060200191505060405180910390fd5b600060608673ffffffffffffffffffffffffffffffffffffffff1685876040518082805190602001908083835b602083106130255780518252602082019150602081019050602083039250613002565b6001836020036101000a03801982511681845116808217855250505050505090500191505060006040518083038185875af1925050503d8060008114613087576040519150601f19603f3d011682016040523d82523d6000602084013e61308c565b606091505b509150915081156130a1578092505050613156565b6000815111156130b45780518082602001fd5b836040517f08c379a00000000000000000000000000000000000000000000000000000000081526004018080602001828103825283818151815260200191508051906020019080838360005b8381101561311b578082015181840152602081019050613100565b50505050905090810190601f1680156131485780820380516001836020036101000a031916815260200191505b509250505060405180910390fd5b94935050505056fe456e756d657261626c655365743a20696e646578206f7574206f6620626f756e64734552433732313a207472616e7366657220746f206e6f6e20455243373231526563656976657220696d706c656d656e7465724f776e61626c653a206e6577206f776e657220697320746865207a65726f20616464726573734552433732313a207472616e7366657220746f20746865207a65726f20616464726573734552433732313a206f70657261746f7220717565727920666f72206e6f6e6578697374656e7420746f6b656e4552433732313a20617070726f76652063616c6c6572206973206e6f74206f776e6572206e6f7220617070726f76656420666f7220616c6c4552433732313a2062616c616e636520717565727920666f7220746865207a65726f20616464726573734552433732313a206f776e657220717565727920666f72206e6f6e6578697374656e7420746f6b656e456e756d657261626c654d61703a20696e646578206f7574206f6620626f756e64734552433732313a20617070726f76656420717565727920666f72206e6f6e6578697374656e7420746f6b656e4552433732313a207472616e73666572206f6620746f6b656e2074686174206973206e6f74206f776e4552433732314d657461646174613a2055524920717565727920666f72206e6f6e6578697374656e7420746f6b656e4552433732313a20617070726f76616c20746f2063757272656e74206f776e65724552433732313a207472616e736665722063616c6c6572206973206e6f74206f776e6572206e6f7220617070726f766564a2646970667358221220fb35235bad71c35d06df8bc63479364cecd5bbba1f1d869e5fdf4922fc8616ce64736f6c634300060c0033",
  "immutableReferences": {},
  "source": "// SPDX-License-Identifier: MIT\npragma solidity >=0.4.22 <0.8.0;\n\nimport \"../NonFungibleToken.sol\";\n\ncontract MockNFT is NonFungibleToken {\nfunction c_0x6ba17f94(bytes32 c__0x6ba17f94) public pure {}\n\n\n    constructor (string memory tokenName, string memory tokenSymbol) public NonFungibleToken(tokenName, tokenSymbol){c_0x6ba17f94(0xba9416f85e6a4018070d46e1dfffac0b75aff416c18decf63b435a3354b51848); /* function */ \n\n        \n    }\n    \n}\n",
  "sourcePath": "/home/saqib/Saqib/Factory/truffle-blueprint-master/.coverage_contracts/test/MockNFT.sol",
  "compiler": {
    "name": "solc",
    "version": "0.6.12+commit.27d51765.Emscripten.clang"
  },
  "schemaVersion": "3.4.1",
  "updatedAt": "2021-09-13T12:33:47.884Z",
  "devdoc": {
    "kind": "dev",
    "methods": {
      "approve(address,uint256)": {
        "details": "See {IERC721-approve}."
      },
      "balanceOf(address)": {
        "details": "See {IERC721-balanceOf}."
      },
      "baseURI()": {
        "details": "Returns the base URI set via {_setBaseURI}. This will be automatically added as a prefix in {tokenURI} to each token's URI, or to the token ID if no specific URI is set for that token ID."
      },
      "getApproved(uint256)": {
        "details": "See {IERC721-getApproved}."
      },
      "isApprovedForAll(address,address)": {
        "details": "See {IERC721-isApprovedForAll}."
      },
      "name()": {
        "details": "See {IERC721Metadata-name}."
      },
      "owner()": {
        "details": "Returns the address of the current owner."
      },
      "ownerOf(uint256)": {
        "details": "See {IERC721-ownerOf}."
      },
      "renounceOwnership()": {
        "details": "Leaves the contract without owner. It will not be possible to call `onlyOwner` functions anymore. Can only be called by the current owner. NOTE: Renouncing ownership will leave the contract without an owner, thereby removing any functionality that is only available to the owner."
      },
      "safeTransferFrom(address,address,uint256)": {
        "details": "See {IERC721-safeTransferFrom}."
      },
      "safeTransferFrom(address,address,uint256,bytes)": {
        "details": "See {IERC721-safeTransferFrom}."
      },
      "setApprovalForAll(address,bool)": {
        "details": "See {IERC721-setApprovalForAll}."
      },
      "supportsInterface(bytes4)": {
        "details": "See {IERC165-supportsInterface}. Time complexity O(1), guaranteed to always use less than 30 000 gas."
      },
      "symbol()": {
        "details": "See {IERC721Metadata-symbol}."
      },
      "tokenByIndex(uint256)": {
        "details": "See {IERC721Enumerable-tokenByIndex}."
      },
      "tokenOfOwnerByIndex(address,uint256)": {
        "details": "See {IERC721Enumerable-tokenOfOwnerByIndex}."
      },
      "tokenURI(uint256)": {
        "details": "See {IERC721Metadata-tokenURI}."
      },
      "totalSupply()": {
        "details": "See {IERC721Enumerable-totalSupply}."
      },
      "transferFrom(address,address,uint256)": {
        "details": "See {IERC721-transferFrom}."
      },
      "transferOwnership(address)": {
        "details": "Transfers ownership of the contract to a new account (`newOwner`). Can only be called by the current owner."
      }
    },
    "version": 1
  },
  "userdoc": {
    "kind": "user",
    "methods": {},
    "version": 1
  }
}