{
  "contractName": "MockBasicToken",
  "abi": [
    {
      "inputs": [
        {
          "internalType": "string",
          "name": "tokenName",
          "type": "string"
        },
        {
          "internalType": "string",
          "name": "tokenSymbol",
          "type": "string"
        }
      ],
      "stateMutability": "nonpayable",
      "type": "constructor"
    },
    {
      "anonymous": false,
      "inputs": [
        {
          "indexed": true,
          "internalType": "address",
          "name": "owner",
          "type": "address"
        },
        {
          "indexed": true,
          "internalType": "address",
          "name": "spender",
          "type": "address"
        },
        {
          "indexed": false,
          "internalType": "uint256",
          "name": "value",
          "type": "uint256"
        }
      ],
      "name": "Approval",
      "type": "event"
    },
    {
      "anonymous": false,
      "inputs": [
        {
          "indexed": false,
          "internalType": "address",
          "name": "myAddress",
          "type": "address"
        },
        {
          "indexed": false,
          "internalType": "string",
          "name": "name",
          "type": "string"
        },
        {
          "indexed": false,
          "internalType": "string",
          "name": "symbol",
          "type": "string"
        },
        {
          "indexed": false,
          "internalType": "string",
          "name": "tokenType",
          "type": "string"
        }
      ],
      "name": "TokenDeployed",
      "type": "event"
    },
    {
      "anonymous": false,
      "inputs": [
        {
          "indexed": true,
          "internalType": "address",
          "name": "from",
          "type": "address"
        },
        {
          "indexed": true,
          "internalType": "address",
          "name": "to",
          "type": "address"
        },
        {
          "indexed": false,
          "internalType": "uint256",
          "name": "value",
          "type": "uint256"
        }
      ],
      "name": "Transfer",
      "type": "event"
    },
    {
      "inputs": [
        {
          "internalType": "address",
          "name": "owner",
          "type": "address"
        },
        {
          "internalType": "address",
          "name": "spender",
          "type": "address"
        }
      ],
      "name": "allowance",
      "outputs": [
        {
          "internalType": "uint256",
          "name": "",
          "type": "uint256"
        }
      ],
      "stateMutability": "view",
      "type": "function"
    },
    {
      "inputs": [
        {
          "internalType": "address",
          "name": "spender",
          "type": "address"
        },
        {
          "internalType": "uint256",
          "name": "amount",
          "type": "uint256"
        }
      ],
      "name": "approve",
      "outputs": [
        {
          "internalType": "bool",
          "name": "",
          "type": "bool"
        }
      ],
      "stateMutability": "nonpayable",
      "type": "function"
    },
    {
      "inputs": [
        {
          "internalType": "address",
          "name": "account",
          "type": "address"
        }
      ],
      "name": "balanceOf",
      "outputs": [
        {
          "internalType": "uint256",
          "name": "",
          "type": "uint256"
        }
      ],
      "stateMutability": "view",
      "type": "function"
    },
    {
      "inputs": [
        {
          "internalType": "bytes32",
          "name": "c__0x3da25147",
          "type": "bytes32"
        }
      ],
      "name": "c_0x3da25147",
      "outputs": [],
      "stateMutability": "pure",
      "type": "function"
    },
    {
      "inputs": [],
      "name": "decimals",
      "outputs": [
        {
          "internalType": "uint8",
          "name": "",
          "type": "uint8"
        }
      ],
      "stateMutability": "view",
      "type": "function"
    },
    {
      "inputs": [
        {
          "internalType": "address",
          "name": "spender",
          "type": "address"
        },
        {
          "internalType": "uint256",
          "name": "subtractedValue",
          "type": "uint256"
        }
      ],
      "name": "decreaseAllowance",
      "outputs": [
        {
          "internalType": "bool",
          "name": "",
          "type": "bool"
        }
      ],
      "stateMutability": "nonpayable",
      "type": "function"
    },
    {
      "inputs": [
        {
          "internalType": "address",
          "name": "spender",
          "type": "address"
        },
        {
          "internalType": "uint256",
          "name": "addedValue",
          "type": "uint256"
        }
      ],
      "name": "increaseAllowance",
      "outputs": [
        {
          "internalType": "bool",
          "name": "",
          "type": "bool"
        }
      ],
      "stateMutability": "nonpayable",
      "type": "function"
    },
    {
      "inputs": [
        {
          "internalType": "string",
          "name": "name",
          "type": "string"
        },
        {
          "internalType": "string",
          "name": "symbol",
          "type": "string"
        },
        {
          "internalType": "string",
          "name": "tokenType",
          "type": "string"
        }
      ],
      "name": "informDeployed",
      "outputs": [],
      "stateMutability": "nonpayable",
      "type": "function"
    },
    {
      "inputs": [],
      "name": "name",
      "outputs": [
        {
          "internalType": "string",
          "name": "",
          "type": "string"
        }
      ],
      "stateMutability": "view",
      "type": "function"
    },
    {
      "inputs": [],
      "name": "symbol",
      "outputs": [
        {
          "internalType": "string",
          "name": "",
          "type": "string"
        }
      ],
      "stateMutability": "view",
      "type": "function"
    },
    {
      "inputs": [],
      "name": "totalSupply",
      "outputs": [
        {
          "internalType": "uint256",
          "name": "",
          "type": "uint256"
        }
      ],
      "stateMutability": "view",
      "type": "function"
    },
    {
      "inputs": [
        {
          "internalType": "address",
          "name": "recipient",
          "type": "address"
        },
        {
          "internalType": "uint256",
          "name": "amount",
          "type": "uint256"
        }
      ],
      "name": "transfer",
      "outputs": [
        {
          "internalType": "bool",
          "name": "",
          "type": "bool"
        }
      ],
      "stateMutability": "nonpayable",
      "type": "function"
    },
    {
      "inputs": [
        {
          "internalType": "address",
          "name": "sender",
          "type": "address"
        },
        {
          "internalType": "address",
          "name": "recipient",
          "type": "address"
        },
        {
          "internalType": "uint256",
          "name": "amount",
          "type": "uint256"
        }
      ],
      "name": "transferFrom",
      "outputs": [
        {
          "internalType": "bool",
          "name": "",
          "type": "bool"
        }
      ],
      "stateMutability": "nonpayable",
      "type": "function"
    },
    {
      "inputs": [
        {
          "internalType": "bytes32",
          "name": "c__0xe4e63e2d",
          "type": "bytes32"
        }
      ],
      "name": "c_0xe4e63e2d",
      "outputs": [],
      "stateMutability": "pure",
      "type": "function"
    }
  ],
  "bytecode": "0x60806040523480156200001157600080fd5b5060405162001bb238038062001bb2833981810160405260408110156200003757600080fd5b81019080805160405193929190846401000000008211156200005857600080fd5b838201915060208201858111156200006f57600080fd5b82518660018202830111640100000000821117156200008d57600080fd5b8083526020830192505050908051906020019080838360005b83811015620000c3578082015181840152602081019050620000a6565b50505050905090810190601f168015620000f15780820380516001836020036101000a031916815260200191505b50604052602001805160405193929190846401000000008211156200011557600080fd5b838201915060208201858111156200012c57600080fd5b82518660018202830111640100000000821117156200014a57600080fd5b8083526020830192505050908051906020019080838360005b838110156200018057808201518184015260208101905062000163565b50505050905090810190601f168015620001ae5780820380516001836020036101000a031916815260200191505b50604052505050818181818160039080519060200190620001d19291906200056f565b508060049080519060200190620001ea9291906200056f565b506012600560006101000a81548160ff021916908360ff16021790555050506200023d7f47e41eefae35535f759dc543d5bd31a3dcd2947d9432b93eed07020b2d346f3960001b6200032b60201b60201c565b620002717f80e74466ad6b6f3e5adaca7f12c08dd80a3f3735eec3f876dd54ba664c07bf7960001b6200032b60201b60201c565b620002a57f98f5bd956a3b71a2981906403ef7d8763d4f6c0fc92565ab5a986526b2bdac9f60001b6200032b60201b60201c565b620002ed82826040518060400160405280602081526020017f455243323020746f6b656e206372656174656420616e64206465706c6f7965648152506200032e60201b60201c565b5050620003237ff9036513029da0cf699608cc3a958f2420a55c10db04a9c94a5c14032e34c8da60001b6200056c60201b60201c565b505062000615565b50565b620003627f8c212e23661f935ee97baa4715177a55c20594ed3401b51158f6f65d94789d0960001b6200032b60201b60201c565b620003967fb00d3beb9488529460610c82c1ba3b32b7e8b24e68acf4f5e320bc84f196ab5260001b6200032b60201b60201c565b620003ca7faa384e6f342c7919b4e710287a3312bc5dc4ca3ea95677aea4601e017bc4851860001b6200032b60201b60201c565b7f4141c4f578f9d3f38e596d4599e91b56a9548ba97e96e57e1b6625e05b65d9c130848484604051808573ffffffffffffffffffffffffffffffffffffffff168152602001806020018060200180602001848103845287818151815260200191508051906020019080838360005b838110156200045557808201518184015260208101905062000438565b50505050905090810190601f168015620004835780820380516001836020036101000a031916815260200191505b50848103835286818151815260200191508051906020019080838360005b83811015620004be578082015181840152602081019050620004a1565b50505050905090810190601f168015620004ec5780820380516001836020036101000a031916815260200191505b50848103825285818151815260200191508051906020019080838360005b83811015620005275780820151818401526020810190506200050a565b50505050905090810190601f168015620005555780820380516001836020036101000a031916815260200191505b5097505050505050505060405180910390a1505050565b50565b828054600181600116156101000203166002900490600052602060002090601f016020900481019282601f10620005b257805160ff1916838001178555620005e3565b82800160010185558215620005e3579182015b82811115620005e2578251825591602001919060010190620005c5565b5b509050620005f29190620005f6565b5090565b5b8082111562000611576000816000905550600101620005f7565b5090565b61158d80620006256000396000f3fe608060405234801561001057600080fd5b50600436106100ea5760003560e01c80635ff8ca751161008c578063a457c2d711610066578063a457c2d7146105ef578063a9059cbb14610653578063dd62ed3e146106b7578063f44f924c1461072f576100ea565b80635ff8ca75146104e657806370a082311461051457806395d89b411461056c576100ea565b806318160ddd116100c857806318160ddd146103bf57806323b872dd146103dd578063313ce567146104615780633950935114610482576100ea565b806306fdde03146100ef578063095ea7b3146101725780631483fb1e146101d6575b600080fd5b6100f761075d565b6040518080602001828103825283818151815260200191508051906020019080838360005b8381101561013757808201518184015260208101905061011c565b50505050905090810190601f1680156101645780820380516001836020036101000a031916815260200191505b509250505060405180910390f35b6101be6004803603604081101561018857600080fd5b81019080803573ffffffffffffffffffffffffffffffffffffffff169060200190929190803590602001909291905050506107ff565b60405180821515815260200191505060405180910390f35b6103bd600480360360608110156101ec57600080fd5b810190808035906020019064010000000081111561020957600080fd5b82018360208201111561021b57600080fd5b8035906020019184600183028401116401000000008311171561023d57600080fd5b91908080601f016020809104026020016040519081016040528093929190818152602001838380828437600081840152601f19601f820116905080830192505050505050509192919290803590602001906401000000008111156102a057600080fd5b8201836020820111156102b257600080fd5b803590602001918460018302840111640100000000831117156102d457600080fd5b91908080601f016020809104026020016040519081016040528093929190818152602001838380828437600081840152601f19601f8201169050808301925050505050505091929192908035906020019064010000000081111561033757600080fd5b82018360208201111561034957600080fd5b8035906020019184600183028401116401000000008311171561036b57600080fd5b91908080601f016020809104026020016040519081016040528093929190818152602001838380828437600081840152601f19601f82011690508083019250505050505050919291929050505061081d565b005b6103c7610a3a565b6040518082815260200191505060405180910390f35b610449600480360360608110156103f357600080fd5b81019080803573ffffffffffffffffffffffffffffffffffffffff169060200190929190803573ffffffffffffffffffffffffffffffffffffffff16906020019092919080359060200190929190505050610a44565b60405180821515815260200191505060405180910390f35b610469610b1d565b604051808260ff16815260200191505060405180910390f35b6104ce6004803603604081101561049857600080fd5b81019080803573ffffffffffffffffffffffffffffffffffffffff16906020019092919080359060200190929190505050610b34565b60405180821515815260200191505060405180910390f35b610512600480360360208110156104fc57600080fd5b8101908080359060200190929190505050610be7565b005b6105566004803603602081101561052a57600080fd5b81019080803573ffffffffffffffffffffffffffffffffffffffff169060200190929190505050610bea565b6040518082815260200191505060405180910390f35b610574610c32565b6040518080602001828103825283818151815260200191508051906020019080838360005b838110156105b4578082015181840152602081019050610599565b50505050905090810190601f1680156105e15780820380516001836020036101000a031916815260200191505b509250505060405180910390f35b61063b6004803603604081101561060557600080fd5b81019080803573ffffffffffffffffffffffffffffffffffffffff16906020019092919080359060200190929190505050610cd4565b60405180821515815260200191505060405180910390f35b61069f6004803603604081101561066957600080fd5b81019080803573ffffffffffffffffffffffffffffffffffffffff16906020019092919080359060200190929190505050610da1565b60405180821515815260200191505060405180910390f35b610719600480360360408110156106cd57600080fd5b81019080803573ffffffffffffffffffffffffffffffffffffffff169060200190929190803573ffffffffffffffffffffffffffffffffffffffff169060200190929190505050610dbf565b6040518082815260200191505060405180910390f35b61075b6004803603602081101561074557600080fd5b8101908080359060200190929190505050610e46565b005b606060038054600181600116156101000203166002900480601f0160208091040260200160405190810160405280929190818152602001828054600181600116156101000203166002900480156107f55780601f106107ca576101008083540402835291602001916107f5565b820191906000526020600020905b8154815290600101906020018083116107d857829003601f168201915b5050505050905090565b600061081361080c610e49565b8484610e51565b6001905092915050565b6108497f8c212e23661f935ee97baa4715177a55c20594ed3401b51158f6f65d94789d0960001b610e46565b6108757fb00d3beb9488529460610c82c1ba3b32b7e8b24e68acf4f5e320bc84f196ab5260001b610e46565b6108a17faa384e6f342c7919b4e710287a3312bc5dc4ca3ea95677aea4601e017bc4851860001b610e46565b7f4141c4f578f9d3f38e596d4599e91b56a9548ba97e96e57e1b6625e05b65d9c130848484604051808573ffffffffffffffffffffffffffffffffffffffff168152602001806020018060200180602001848103845287818151815260200191508051906020019080838360005b8381101561092a57808201518184015260208101905061090f565b50505050905090810190601f1680156109575780820380516001836020036101000a031916815260200191505b50848103835286818151815260200191508051906020019080838360005b83811015610990578082015181840152602081019050610975565b50505050905090810190601f1680156109bd5780820380516001836020036101000a031916815260200191505b50848103825285818151815260200191508051906020019080838360005b838110156109f65780820151818401526020810190506109db565b50505050905090810190601f168015610a235780820380516001836020036101000a031916815260200191505b5097505050505050505060405180910390a1505050565b6000600254905090565b6000610a51848484611048565b610b1284610a5d610e49565b610b0d856040518060600160405280602881526020016114c260289139600160008b73ffffffffffffffffffffffffffffffffffffffff1673ffffffffffffffffffffffffffffffffffffffff1681526020019081526020016000206000610ac3610e49565b73ffffffffffffffffffffffffffffffffffffffff1673ffffffffffffffffffffffffffffffffffffffff168152602001908152602001600020546113099092919063ffffffff16565b610e51565b600190509392505050565b6000600560009054906101000a900460ff16905090565b6000610bdd610b41610e49565b84610bd88560016000610b52610e49565b73ffffffffffffffffffffffffffffffffffffffff1673ffffffffffffffffffffffffffffffffffffffff16815260200190815260200160002060008973ffffffffffffffffffffffffffffffffffffffff1673ffffffffffffffffffffffffffffffffffffffff168152602001908152602001600020546113c990919063ffffffff16565b610e51565b6001905092915050565b50565b60008060008373ffffffffffffffffffffffffffffffffffffffff1673ffffffffffffffffffffffffffffffffffffffff168152602001908152602001600020549050919050565b606060048054600181600116156101000203166002900480601f016020809104026020016040519081016040528092919081815260200182805460018160011615610100020316600290048015610cca5780601f10610c9f57610100808354040283529160200191610cca565b820191906000526020600020905b815481529060010190602001808311610cad57829003601f168201915b5050505050905090565b6000610d97610ce1610e49565b84610d92856040518060600160405280602581526020016115336025913960016000610d0b610e49565b73ffffffffffffffffffffffffffffffffffffffff1673ffffffffffffffffffffffffffffffffffffffff16815260200190815260200160002060008a73ffffffffffffffffffffffffffffffffffffffff1673ffffffffffffffffffffffffffffffffffffffff168152602001908152602001600020546113099092919063ffffffff16565b610e51565b6001905092915050565b6000610db5610dae610e49565b8484611048565b6001905092915050565b6000600160008473ffffffffffffffffffffffffffffffffffffffff1673ffffffffffffffffffffffffffffffffffffffff16815260200190815260200160002060008373ffffffffffffffffffffffffffffffffffffffff1673ffffffffffffffffffffffffffffffffffffffff16815260200190815260200160002054905092915050565b50565b600033905090565b600073ffffffffffffffffffffffffffffffffffffffff168373ffffffffffffffffffffffffffffffffffffffff161415610ed7576040517f08c379a000000000000000000000000000000000000000000000000000000000815260040180806020018281038252602481526020018061150f6024913960400191505060405180910390fd5b600073ffffffffffffffffffffffffffffffffffffffff168273ffffffffffffffffffffffffffffffffffffffff161415610f5d576040517f08c379a000000000000000000000000000000000000000000000000000000000815260040180806020018281038252602281526020018061147a6022913960400191505060405180910390fd5b80600160008573ffffffffffffffffffffffffffffffffffffffff1673ffffffffffffffffffffffffffffffffffffffff16815260200190815260200160002060008473ffffffffffffffffffffffffffffffffffffffff1673ffffffffffffffffffffffffffffffffffffffff168152602001908152602001600020819055508173ffffffffffffffffffffffffffffffffffffffff168373ffffffffffffffffffffffffffffffffffffffff167f8c5be1e5ebec7d5bd14f71427d1e84f3dd0314c0f7b2291e5b200ac8c7c3b925836040518082815260200191505060405180910390a3505050565b600073ffffffffffffffffffffffffffffffffffffffff168373ffffffffffffffffffffffffffffffffffffffff1614156110ce576040517f08c379a00000000000000000000000000000000000000000000000000000000081526004018080602001828103825260258152602001806114ea6025913960400191505060405180910390fd5b600073ffffffffffffffffffffffffffffffffffffffff168273ffffffffffffffffffffffffffffffffffffffff161415611154576040517f08c379a00000000000000000000000000000000000000000000000000000000081526004018080602001828103825260238152602001806114576023913960400191505060405180910390fd5b61115f838383611451565b6111ca8160405180606001604052806026815260200161149c602691396000808773ffffffffffffffffffffffffffffffffffffffff1673ffffffffffffffffffffffffffffffffffffffff168152602001908152602001600020546113099092919063ffffffff16565b6000808573ffffffffffffffffffffffffffffffffffffffff1673ffffffffffffffffffffffffffffffffffffffff1681526020019081526020016000208190555061125d816000808573ffffffffffffffffffffffffffffffffffffffff1673ffffffffffffffffffffffffffffffffffffffff168152602001908152602001600020546113c990919063ffffffff16565b6000808473ffffffffffffffffffffffffffffffffffffffff1673ffffffffffffffffffffffffffffffffffffffff168152602001908152602001600020819055508173ffffffffffffffffffffffffffffffffffffffff168373ffffffffffffffffffffffffffffffffffffffff167fddf252ad1be2c89b69c2b068fc378daa952ba7f163c4a11628f55a4df523b3ef836040518082815260200191505060405180910390a3505050565b60008383111582906113b6576040517f08c379a00000000000000000000000000000000000000000000000000000000081526004018080602001828103825283818151815260200191508051906020019080838360005b8381101561137b578082015181840152602081019050611360565b50505050905090810190601f1680156113a85780820380516001836020036101000a031916815260200191505b509250505060405180910390fd5b5060008385039050809150509392505050565b600080828401905083811015611447576040517f08c379a000000000000000000000000000000000000000000000000000000000815260040180806020018281038252601b8152602001807f536166654d6174683a206164646974696f6e206f766572666c6f77000000000081525060200191505060405180910390fd5b8091505092915050565b50505056fe45524332303a207472616e7366657220746f20746865207a65726f206164647265737345524332303a20617070726f766520746f20746865207a65726f206164647265737345524332303a207472616e7366657220616d6f756e7420657863656564732062616c616e636545524332303a207472616e7366657220616d6f756e74206578636565647320616c6c6f77616e636545524332303a207472616e736665722066726f6d20746865207a65726f206164647265737345524332303a20617070726f76652066726f6d20746865207a65726f206164647265737345524332303a2064656372656173656420616c6c6f77616e63652062656c6f77207a65726fa2646970667358221220c607b36faeba8482e694db497660b46da98de75a99b05f47c2588b1193cfaf0264736f6c634300060c0033",
  "immutableReferences": {},
  "source": "// SPDX-License-Identifier: MIT\npragma solidity >=0.4.22 <0.8.0;\n\nimport \"../BasicToken.sol\";\n\ncontract MockBasicToken is BasicToken {\nfunction c_0xe4e63e2d(bytes32 c__0xe4e63e2d) public pure {}\n\n\n    constructor (string memory tokenName, string memory tokenSymbol) public BasicToken(tokenName, tokenSymbol){c_0xe4e63e2d(0xf9036513029da0cf699608cc3a958f2420a55c10db04a9c94a5c14032e34c8da); /* function */ \n\n        \n    }\n}\n",
  "sourcePath": "/home/saqib/Saqib/Factory/truffle-blueprint-master/.coverage_contracts/test/MockBasicToken.sol",
  "compiler": {
    "name": "solc",
    "version": "0.6.12+commit.27d51765.Emscripten.clang"
  },
  "schemaVersion": "3.4.1",
  "updatedAt": "2021-09-13T12:33:47.882Z",
  "devdoc": {
    "kind": "dev",
    "methods": {
      "allowance(address,address)": {
        "details": "See {IERC20-allowance}."
      },
      "approve(address,uint256)": {
        "details": "See {IERC20-approve}. Requirements: - `spender` cannot be the zero address."
      },
      "balanceOf(address)": {
        "details": "See {IERC20-balanceOf}."
      },
      "decimals()": {
        "details": "Returns the number of decimals used to get its user representation. For example, if `decimals` equals `2`, a balance of `505` tokens should be displayed to a user as `5,05` (`505 / 10 ** 2`). Tokens usually opt for a value of 18, imitating the relationship between Ether and Wei. This is the value {ERC20} uses, unless {_setupDecimals} is called. NOTE: This information is only used for _display_ purposes: it in no way affects any of the arithmetic of the contract, including {IERC20-balanceOf} and {IERC20-transfer}."
      },
      "decreaseAllowance(address,uint256)": {
        "details": "Atomically decreases the allowance granted to `spender` by the caller. This is an alternative to {approve} that can be used as a mitigation for problems described in {IERC20-approve}. Emits an {Approval} event indicating the updated allowance. Requirements: - `spender` cannot be the zero address. - `spender` must have allowance for the caller of at least `subtractedValue`."
      },
      "increaseAllowance(address,uint256)": {
        "details": "Atomically increases the allowance granted to `spender` by the caller. This is an alternative to {approve} that can be used as a mitigation for problems described in {IERC20-approve}. Emits an {Approval} event indicating the updated allowance. Requirements: - `spender` cannot be the zero address."
      },
      "name()": {
        "details": "Returns the name of the token."
      },
      "symbol()": {
        "details": "Returns the symbol of the token, usually a shorter version of the name."
      },
      "totalSupply()": {
        "details": "See {IERC20-totalSupply}."
      },
      "transfer(address,uint256)": {
        "details": "See {IERC20-transfer}. Requirements: - `recipient` cannot be the zero address. - the caller must have a balance of at least `amount`."
      },
      "transferFrom(address,address,uint256)": {
        "details": "See {IERC20-transferFrom}. Emits an {Approval} event indicating the updated allowance. This is not required by the EIP. See the note at the beginning of {ERC20}; Requirements: - `sender` and `recipient` cannot be the zero address. - `sender` must have a balance of at least `amount`. - the caller must have allowance for ``sender``'s tokens of at least `amount`."
      }
    },
    "version": 1
  },
  "userdoc": {
    "kind": "user",
    "methods": {},
    "version": 1
  }
}