{
  "contractName": "TokenDeployer",
  "abi": [
    {
      "inputs": [
        {
          "internalType": "bytes32",
          "name": "c__0x0a5a2010",
          "type": "bytes32"
        }
      ],
      "name": "c_0x0a5a2010",
      "outputs": [],
      "stateMutability": "pure",
      "type": "function"
    },
    {
      "inputs": [
        {
          "internalType": "address",
          "name": "factory",
          "type": "address"
        },
        {
          "internalType": "string",
          "name": "tokenName",
          "type": "string"
        },
        {
          "internalType": "string",
          "name": "tokenSymbol",
          "type": "string"
        },
        {
          "internalType": "string",
          "name": "tokenType",
          "type": "string"
        }
      ],
      "name": "deploy",
      "outputs": [
        {
          "internalType": "address",
          "name": "deployedToken",
          "type": "address"
        }
      ],
      "stateMutability": "nonpayable",
      "type": "function"
    }
  ],
  "bytecode": "0x608060405234801561001057600080fd5b50616624806100206000396000f3fe60806040523480156200001157600080fd5b50600436106200003a5760003560e01c80630fc595db146200003f5780632a319292146200027e575b600080fd5b62000252600480360360808110156200005757600080fd5b81019080803573ffffffffffffffffffffffffffffffffffffffff169060200190929190803590602001906401000000008111156200009557600080fd5b820183602082011115620000a857600080fd5b80359060200191846001830284011164010000000083111715620000cb57600080fd5b91908080601f016020809104026020016040519081016040528093929190818152602001838380828437600081840152601f19601f820116905080830192505050505050509192919290803590602001906401000000008111156200012f57600080fd5b8201836020820111156200014257600080fd5b803590602001918460018302840111640100000000831117156200016557600080fd5b91908080601f016020809104026020016040519081016040528093929190818152602001838380828437600081840152601f19601f82011690508083019250505050505050919291929080359060200190640100000000811115620001c957600080fd5b820183602082011115620001dc57600080fd5b80359060200191846001830284011164010000000083111715620001ff57600080fd5b91908080601f016020809104026020016040519081016040528093929190818152602001838380828437600081840152601f19601f820116905080830192505050505050509192919290505050620002af565b604051808273ffffffffffffffffffffffffffffffffffffffff16815260200191505060405180910390f35b620002ad600480360360208110156200029657600080fd5b810190808035906020019092919050505062000953565b005b6000620002df7f420650ec8dcb572a464910a6f6009cda3c1b032f559d9bd6ea5c1763db501ae260001b62000953565b6200030d7f18c076541a98a5d98d0cd3b7796ced319f4e05cf2982e5d5b4450028f1f7a8aa60001b62000953565b6200033b7fb1e24e5d5d3c89d1dc92a8cd4d08344bcb7efd6b383d4506ffdd73766c9ad24e60001b62000953565b60006200036b7f4af68b1ca87081c3f2bac2f5a26065dbcaad28c7dc50fcade9e3d2f8d18dfaf360001b62000953565b620003997f101af73028f22399103b187bd97e4a1a1ae5dde8253dfd3dee88d2db8af0fe0360001b62000953565b60405160200180807f4261736963000000000000000000000000000000000000000000000000000000815250600501905060405160208183030381529060405280519060200120836040516020018082805190602001908083835b60208310620004195780518252602082019150602081019050602083039250620003f4565b6001836020036101000a038019825116818451168082178552505050505050905001915050604051602081830303815290604052805190602001201415620005fc57620004897f0675d253025e085976730d497dabdfae48d9ddd4ddf7dab100565cb9d6d353dc60001b62000953565b620004b77fa0aef26940b403580b4ccc0fd40d7fa754bdf58ee56f0a08e0879201b88f65a560001b62000953565b620004e57f73452379807ab03f13cbe9f5f5a86e3cdb32496f2c2d9035f8843817cff2185160001b62000953565b8484604051620004f59062000956565b808060200180602001838103835285818151815260200191508051906020019080838360005b83811015620005385780820151818401526020810190506200051b565b50505050905090810190601f168015620005665780820380516001836020036101000a031916815260200191505b50838103825284818151815260200191508051906020019080838360005b83811015620005a157808201518184015260208101905062000584565b50505050905090810190601f168015620005cf5780820380516001836020036101000a031916815260200191505b50945050505050604051809103906000f080158015620005f3573d6000803e3d6000fd5b509050620008eb565b6200062a7f77191307fd2a6601677f4b25a0d541419aa39a3f634d286e3040e5f1f28ab5aa60001b62000953565b620006587fa2b9e5aa5d0daf13309a7be1bfbf4af7a4b496288d8d12b3931cb9548938c9a660001b62000953565b60405160200180807f4e46540000000000000000000000000000000000000000000000000000000000815250600301905060405160208183030381529060405280519060200120836040516020018082805190602001908083835b60208310620006d85780518252602082019150602081019050602083039250620006b3565b6001836020036101000a038019825116818451168082178552505050505050905001915050604051602081830303815290604052805190602001201415620008bb57620007487f74b57c00f3ba4ab79b1ae516781f09876a54cce974ea2c4e25bcdba77ff0824160001b62000953565b620007767ff4c2cbd4c17beab4fbbd6d23a3da7b8c5ff848becb6e19668ffb8585fe37e2c960001b62000953565b620007a47f193b62b3bfe6e2876b80b028eac866c7f21cca6b724506000aec2de735a90b6260001b62000953565b8484604051620007b49062000964565b808060200180602001838103835285818151815260200191508051906020019080838360005b83811015620007f7578082015181840152602081019050620007da565b50505050905090810190601f168015620008255780820380516001836020036101000a031916815260200191505b50838103825284818151815260200191508051906020019080838360005b838110156200086057808201518184015260208101905062000843565b50505050905090810190601f1680156200088e5780820380516001836020036101000a031916815260200191505b50945050505050604051809103906000f080158015620008b2573d6000803e3d6000fd5b509050620008ea565b620008e97f3cbf9557581295d8c317159d6d9b90bdd83f53e20120092f059ec4b2f43b9b0460001b62000953565b5b5b620009197fb12e221acfb101a77a2e5ac2470ae09b5e83694fa867abc2a5038119f87e094960001b62000953565b620009477fdc73da3b80412fe2b687af51cbf5c98a918caf5879dbc757791f9908f350d21560001b62000953565b80915050949350505050565b50565b611b2b806200097383390190565b614151806200249e8339019056fe60806040523480156200001157600080fd5b5060405162001b2b38038062001b2b833981810160405260408110156200003757600080fd5b81019080805160405193929190846401000000008211156200005857600080fd5b838201915060208201858111156200006f57600080fd5b82518660018202830111640100000000821117156200008d57600080fd5b8083526020830192505050908051906020019080838360005b83811015620000c3578082015181840152602081019050620000a6565b50505050905090810190601f168015620000f15780820380516001836020036101000a031916815260200191505b50604052602001805160405193929190846401000000008211156200011557600080fd5b838201915060208201858111156200012c57600080fd5b82518660018202830111640100000000821117156200014a57600080fd5b8083526020830192505050908051906020019080838360005b838110156200018057808201518184015260208101905062000163565b50505050905090810190601f168015620001ae5780820380516001836020036101000a031916815260200191505b5060405250505081818160039080519060200190620001cf92919062000534565b508060049080519060200190620001e892919062000534565b506012600560006101000a81548160ff021916908360ff16021790555050506200023b7f47e41eefae35535f759dc543d5bd31a3dcd2947d9432b93eed07020b2d346f3960001b620002f360201b60201c565b6200026f7f80e74466ad6b6f3e5adaca7f12c08dd80a3f3735eec3f876dd54ba664c07bf7960001b620002f360201b60201c565b620002a37f98f5bd956a3b71a2981906403ef7d8763d4f6c0fc92565ab5a986526b2bdac9f60001b620002f360201b60201c565b620002eb82826040518060400160405280602081526020017f455243323020746f6b656e206372656174656420616e64206465706c6f796564815250620002f660201b60201c565b5050620005da565b50565b6200032a7f8c212e23661f935ee97baa4715177a55c20594ed3401b51158f6f65d94789d0960001b620002f360201b60201c565b6200035e7fb00d3beb9488529460610c82c1ba3b32b7e8b24e68acf4f5e320bc84f196ab5260001b620002f360201b60201c565b620003927faa384e6f342c7919b4e710287a3312bc5dc4ca3ea95677aea4601e017bc4851860001b620002f360201b60201c565b7f4141c4f578f9d3f38e596d4599e91b56a9548ba97e96e57e1b6625e05b65d9c130848484604051808573ffffffffffffffffffffffffffffffffffffffff168152602001806020018060200180602001848103845287818151815260200191508051906020019080838360005b838110156200041d57808201518184015260208101905062000400565b50505050905090810190601f1680156200044b5780820380516001836020036101000a031916815260200191505b50848103835286818151815260200191508051906020019080838360005b838110156200048657808201518184015260208101905062000469565b50505050905090810190601f168015620004b45780820380516001836020036101000a031916815260200191505b50848103825285818151815260200191508051906020019080838360005b83811015620004ef578082015181840152602081019050620004d2565b50505050905090810190601f1680156200051d5780820380516001836020036101000a031916815260200191505b5097505050505050505060405180910390a1505050565b828054600181600116156101000203166002900490600052602060002090601f016020900481019282601f106200057757805160ff1916838001178555620005a8565b82800160010185558215620005a8579182015b82811115620005a75782518255916020019190600101906200058a565b5b509050620005b79190620005bb565b5090565b5b80821115620005d6576000816000905550600101620005bc565b5090565b61154180620005ea6000396000f3fe608060405234801561001057600080fd5b50600436106100cf5760003560e01c8063395093511161008c578063a457c2d711610066578063a457c2d7146105a6578063a9059cbb1461060a578063dd62ed3e1461066e578063f44f924c146106e6576100cf565b8063395093511461046757806370a08231146104cb57806395d89b4114610523576100cf565b806306fdde03146100d4578063095ea7b3146101575780631483fb1e146101bb57806318160ddd146103a457806323b872dd146103c2578063313ce56714610446575b600080fd5b6100dc610714565b6040518080602001828103825283818151815260200191508051906020019080838360005b8381101561011c578082015181840152602081019050610101565b50505050905090810190601f1680156101495780820380516001836020036101000a031916815260200191505b509250505060405180910390f35b6101a36004803603604081101561016d57600080fd5b81019080803573ffffffffffffffffffffffffffffffffffffffff169060200190929190803590602001909291905050506107b6565b60405180821515815260200191505060405180910390f35b6103a2600480360360608110156101d157600080fd5b81019080803590602001906401000000008111156101ee57600080fd5b82018360208201111561020057600080fd5b8035906020019184600183028401116401000000008311171561022257600080fd5b91908080601f016020809104026020016040519081016040528093929190818152602001838380828437600081840152601f19601f8201169050808301925050505050505091929192908035906020019064010000000081111561028557600080fd5b82018360208201111561029757600080fd5b803590602001918460018302840111640100000000831117156102b957600080fd5b91908080601f016020809104026020016040519081016040528093929190818152602001838380828437600081840152601f19601f8201169050808301925050505050505091929192908035906020019064010000000081111561031c57600080fd5b82018360208201111561032e57600080fd5b8035906020019184600183028401116401000000008311171561035057600080fd5b91908080601f016020809104026020016040519081016040528093929190818152602001838380828437600081840152601f19601f8201169050808301925050505050505091929192905050506107d4565b005b6103ac6109f1565b6040518082815260200191505060405180910390f35b61042e600480360360608110156103d857600080fd5b81019080803573ffffffffffffffffffffffffffffffffffffffff169060200190929190803573ffffffffffffffffffffffffffffffffffffffff169060200190929190803590602001909291905050506109fb565b60405180821515815260200191505060405180910390f35b61044e610ad4565b604051808260ff16815260200191505060405180910390f35b6104b36004803603604081101561047d57600080fd5b81019080803573ffffffffffffffffffffffffffffffffffffffff16906020019092919080359060200190929190505050610aeb565b60405180821515815260200191505060405180910390f35b61050d600480360360208110156104e157600080fd5b81019080803573ffffffffffffffffffffffffffffffffffffffff169060200190929190505050610b9e565b6040518082815260200191505060405180910390f35b61052b610be6565b6040518080602001828103825283818151815260200191508051906020019080838360005b8381101561056b578082015181840152602081019050610550565b50505050905090810190601f1680156105985780820380516001836020036101000a031916815260200191505b509250505060405180910390f35b6105f2600480360360408110156105bc57600080fd5b81019080803573ffffffffffffffffffffffffffffffffffffffff16906020019092919080359060200190929190505050610c88565b60405180821515815260200191505060405180910390f35b6106566004803603604081101561062057600080fd5b81019080803573ffffffffffffffffffffffffffffffffffffffff16906020019092919080359060200190929190505050610d55565b60405180821515815260200191505060405180910390f35b6106d06004803603604081101561068457600080fd5b81019080803573ffffffffffffffffffffffffffffffffffffffff169060200190929190803573ffffffffffffffffffffffffffffffffffffffff169060200190929190505050610d73565b6040518082815260200191505060405180910390f35b610712600480360360208110156106fc57600080fd5b8101908080359060200190929190505050610dfa565b005b606060038054600181600116156101000203166002900480601f0160208091040260200160405190810160405280929190818152602001828054600181600116156101000203166002900480156107ac5780601f10610781576101008083540402835291602001916107ac565b820191906000526020600020905b81548152906001019060200180831161078f57829003601f168201915b5050505050905090565b60006107ca6107c3610dfd565b8484610e05565b6001905092915050565b6108007f8c212e23661f935ee97baa4715177a55c20594ed3401b51158f6f65d94789d0960001b610dfa565b61082c7fb00d3beb9488529460610c82c1ba3b32b7e8b24e68acf4f5e320bc84f196ab5260001b610dfa565b6108587faa384e6f342c7919b4e710287a3312bc5dc4ca3ea95677aea4601e017bc4851860001b610dfa565b7f4141c4f578f9d3f38e596d4599e91b56a9548ba97e96e57e1b6625e05b65d9c130848484604051808573ffffffffffffffffffffffffffffffffffffffff168152602001806020018060200180602001848103845287818151815260200191508051906020019080838360005b838110156108e15780820151818401526020810190506108c6565b50505050905090810190601f16801561090e5780820380516001836020036101000a031916815260200191505b50848103835286818151815260200191508051906020019080838360005b8381101561094757808201518184015260208101905061092c565b50505050905090810190601f1680156109745780820380516001836020036101000a031916815260200191505b50848103825285818151815260200191508051906020019080838360005b838110156109ad578082015181840152602081019050610992565b50505050905090810190601f1680156109da5780820380516001836020036101000a031916815260200191505b5097505050505050505060405180910390a1505050565b6000600254905090565b6000610a08848484610ffc565b610ac984610a14610dfd565b610ac48560405180606001604052806028815260200161147660289139600160008b73ffffffffffffffffffffffffffffffffffffffff1673ffffffffffffffffffffffffffffffffffffffff1681526020019081526020016000206000610a7a610dfd565b73ffffffffffffffffffffffffffffffffffffffff1673ffffffffffffffffffffffffffffffffffffffff168152602001908152602001600020546112bd9092919063ffffffff16565b610e05565b600190509392505050565b6000600560009054906101000a900460ff16905090565b6000610b94610af8610dfd565b84610b8f8560016000610b09610dfd565b73ffffffffffffffffffffffffffffffffffffffff1673ffffffffffffffffffffffffffffffffffffffff16815260200190815260200160002060008973ffffffffffffffffffffffffffffffffffffffff1673ffffffffffffffffffffffffffffffffffffffff1681526020019081526020016000205461137d90919063ffffffff16565b610e05565b6001905092915050565b60008060008373ffffffffffffffffffffffffffffffffffffffff1673ffffffffffffffffffffffffffffffffffffffff168152602001908152602001600020549050919050565b606060048054600181600116156101000203166002900480601f016020809104026020016040519081016040528092919081815260200182805460018160011615610100020316600290048015610c7e5780601f10610c5357610100808354040283529160200191610c7e565b820191906000526020600020905b815481529060010190602001808311610c6157829003601f168201915b5050505050905090565b6000610d4b610c95610dfd565b84610d46856040518060600160405280602581526020016114e76025913960016000610cbf610dfd565b73ffffffffffffffffffffffffffffffffffffffff1673ffffffffffffffffffffffffffffffffffffffff16815260200190815260200160002060008a73ffffffffffffffffffffffffffffffffffffffff1673ffffffffffffffffffffffffffffffffffffffff168152602001908152602001600020546112bd9092919063ffffffff16565b610e05565b6001905092915050565b6000610d69610d62610dfd565b8484610ffc565b6001905092915050565b6000600160008473ffffffffffffffffffffffffffffffffffffffff1673ffffffffffffffffffffffffffffffffffffffff16815260200190815260200160002060008373ffffffffffffffffffffffffffffffffffffffff1673ffffffffffffffffffffffffffffffffffffffff16815260200190815260200160002054905092915050565b50565b600033905090565b600073ffffffffffffffffffffffffffffffffffffffff168373ffffffffffffffffffffffffffffffffffffffff161415610e8b576040517f08c379a00000000000000000000000000000000000000000000000000000000081526004018080602001828103825260248152602001806114c36024913960400191505060405180910390fd5b600073ffffffffffffffffffffffffffffffffffffffff168273ffffffffffffffffffffffffffffffffffffffff161415610f11576040517f08c379a000000000000000000000000000000000000000000000000000000000815260040180806020018281038252602281526020018061142e6022913960400191505060405180910390fd5b80600160008573ffffffffffffffffffffffffffffffffffffffff1673ffffffffffffffffffffffffffffffffffffffff16815260200190815260200160002060008473ffffffffffffffffffffffffffffffffffffffff1673ffffffffffffffffffffffffffffffffffffffff168152602001908152602001600020819055508173ffffffffffffffffffffffffffffffffffffffff168373ffffffffffffffffffffffffffffffffffffffff167f8c5be1e5ebec7d5bd14f71427d1e84f3dd0314c0f7b2291e5b200ac8c7c3b925836040518082815260200191505060405180910390a3505050565b600073ffffffffffffffffffffffffffffffffffffffff168373ffffffffffffffffffffffffffffffffffffffff161415611082576040517f08c379a000000000000000000000000000000000000000000000000000000000815260040180806020018281038252602581526020018061149e6025913960400191505060405180910390fd5b600073ffffffffffffffffffffffffffffffffffffffff168273ffffffffffffffffffffffffffffffffffffffff161415611108576040517f08c379a000000000000000000000000000000000000000000000000000000000815260040180806020018281038252602381526020018061140b6023913960400191505060405180910390fd5b611113838383611405565b61117e81604051806060016040528060268152602001611450602691396000808773ffffffffffffffffffffffffffffffffffffffff1673ffffffffffffffffffffffffffffffffffffffff168152602001908152602001600020546112bd9092919063ffffffff16565b6000808573ffffffffffffffffffffffffffffffffffffffff1673ffffffffffffffffffffffffffffffffffffffff16815260200190815260200160002081905550611211816000808573ffffffffffffffffffffffffffffffffffffffff1673ffffffffffffffffffffffffffffffffffffffff1681526020019081526020016000205461137d90919063ffffffff16565b6000808473ffffffffffffffffffffffffffffffffffffffff1673ffffffffffffffffffffffffffffffffffffffff168152602001908152602001600020819055508173ffffffffffffffffffffffffffffffffffffffff168373ffffffffffffffffffffffffffffffffffffffff167fddf252ad1be2c89b69c2b068fc378daa952ba7f163c4a11628f55a4df523b3ef836040518082815260200191505060405180910390a3505050565b600083831115829061136a576040517f08c379a00000000000000000000000000000000000000000000000000000000081526004018080602001828103825283818151815260200191508051906020019080838360005b8381101561132f578082015181840152602081019050611314565b50505050905090810190601f16801561135c5780820380516001836020036101000a031916815260200191505b509250505060405180910390fd5b5060008385039050809150509392505050565b6000808284019050838110156113fb576040517f08c379a000000000000000000000000000000000000000000000000000000000815260040180806020018281038252601b8152602001807f536166654d6174683a206164646974696f6e206f766572666c6f77000000000081525060200191505060405180910390fd5b8091505092915050565b50505056fe45524332303a207472616e7366657220746f20746865207a65726f206164647265737345524332303a20617070726f766520746f20746865207a65726f206164647265737345524332303a207472616e7366657220616d6f756e7420657863656564732062616c616e636545524332303a207472616e7366657220616d6f756e74206578636565647320616c6c6f77616e636545524332303a207472616e736665722066726f6d20746865207a65726f206164647265737345524332303a20617070726f76652066726f6d20746865207a65726f206164647265737345524332303a2064656372656173656420616c6c6f77616e63652062656c6f77207a65726fa264697066735822122034ea1b4aa7c4c982ec8e6e7bfaebc9f893735cab7511339660eebc526a8aad3664736f6c634300060c003360806040523480156200001157600080fd5b506040516200415138038062004151833981810160405260408110156200003757600080fd5b81019080805160405193929190846401000000008211156200005857600080fd5b838201915060208201858111156200006f57600080fd5b82518660018202830111640100000000821117156200008d57600080fd5b8083526020830192505050908051906020019080838360005b83811015620000c3578082015181840152602081019050620000a6565b50505050905090810190601f168015620000f15780820380516001836020036101000a031916815260200191505b50604052602001805160405193929190846401000000008211156200011557600080fd5b838201915060208201858111156200012c57600080fd5b82518660018202830111640100000000821117156200014a57600080fd5b8083526020830192505050908051906020019080838360005b838110156200018057808201518184015260208101905062000163565b50505050905090810190601f168015620001ae5780820380516001836020036101000a031916815260200191505b506040525050508181620001cf6301ffc9a760e01b6200049060201b60201c565b8160069080519060200190620001e792919062000cf6565b5080600790805190602001906200020092919062000cf6565b50620002196380ac58cd60e01b6200049060201b60201c565b62000231635b5e139f60e01b6200049060201b60201c565b6200024963780e9d6360e01b6200049060201b60201c565b505060006200025d6200059960201b60201c565b905080600a60006101000a81548173ffffffffffffffffffffffffffffffffffffffff021916908373ffffffffffffffffffffffffffffffffffffffff1602179055508073ffffffffffffffffffffffffffffffffffffffff16600073ffffffffffffffffffffffffffffffffffffffff167f8be0079c531659141344cd1fd0a4f28419497f9722a3daafe3b4186f6b6457e060405160405180910390a350620003307f0b539f053524ea98f3921bcecf2c1171fce23ba29acfe1fa39bf145fce6a277760001b620005a160201b60201c565b620003647f324961cdc29c0b75e15272499b5fe0e4e490a865d290dc07de2e37bbab688a2b60001b620005a160201b60201c565b620003987f07ac65568f073191708f6db621eb9892b3dc32d2ea2b91d0d1d00b819a7ef9e660001b620005a160201b60201c565b620003e082826040518060400160405280602081526020017f455243323020746f6b656e206372656174656420616e64206465706c6f796564815250620005a460201b60201c565b620004147f8ab0f03de584c1bb9d78cda80a65798bfa9deb2dcc8b3e9d82ae9d206adbc2de60001b620005a160201b60201c565b620004487f16315694e84f02bcaf82e319b29dc4b93b3c1741df76954b65d006d0eee392bf60001b620005a160201b60201c565b620004883362000477600162000463620007c460201b60201c565b620007e260201b62001ec91790919060201c565b6200086b60201b62001f511760201c565b505062000d9c565b63ffffffff60e01b817bffffffffffffffffffffffffffffffffffffffffffffffffffffffff191614156200052d576040517f08c379a000000000000000000000000000000000000000000000000000000000815260040180806020018281038252601c8152602001807f4552433136353a20696e76616c696420696e746572666163652069640000000081525060200191505060405180910390fd5b6001600080837bffffffffffffffffffffffffffffffffffffffffffffffffffffffff19167bffffffffffffffffffffffffffffffffffffffffffffffffffffffff1916815260200190815260200160002060006101000a81548160ff02191690831515021790555050565b600033905090565b50565b620005d87f511a61dda44b0ee02e52517a81435af0f945fd51728869895d357172de21c81360001b620005a160201b60201c565b6200060c7fd2fd0c05fbd025e50f902649ea49b60a5783f75f9724e0d468cf51ac6ffe66b160001b620005a160201b60201c565b620006407f5761116669f214cd604b101003c164f649258886c7590ec0f9e02422197b7b0d60001b620005a160201b60201c565b7fd0b4bb6c4e82ab4cb1abce8ec75c64d146f2791d3694c99caaf12b68d06f73f983838360405180806020018060200180602001848103845287818151815260200191508051906020019080838360005b83811015620006ae57808201518184015260208101905062000691565b50505050905090810190601f168015620006dc5780820380516001836020036101000a031916815260200191505b50848103835286818151815260200191508051906020019080838360005b8381101562000717578082015181840152602081019050620006fa565b50505050905090810190601f168015620007455780820380516001836020036101000a031916815260200191505b50848103825285818151815260200191508051906020019080838360005b838110156200078057808201518184015260208101905062000763565b50505050905090810190601f168015620007ae5780820380516001836020036101000a031916815260200191505b50965050505050505060405180910390a1505050565b6000620007dd600262000a7f60201b620021451760201c565b905090565b60008082840190508381101562000861576040517f08c379a000000000000000000000000000000000000000000000000000000000815260040180806020018281038252601b8152602001807f536166654d6174683a206164646974696f6e206f766572666c6f77000000000081525060200191505060405180910390fd5b8091505092915050565b600073ffffffffffffffffffffffffffffffffffffffff168273ffffffffffffffffffffffffffffffffffffffff1614156200090f576040517f08c379a00000000000000000000000000000000000000000000000000000000081526004018080602001828103825260208152602001807f4552433732313a206d696e7420746f20746865207a65726f206164647265737381525060200191505060405180910390fd5b620009208162000a9c60201b60201c565b1562000994576040517f08c379a000000000000000000000000000000000000000000000000000000000815260040180806020018281038252601c8152602001807f4552433732313a20746f6b656e20616c7265616479206d696e7465640000000081525060200191505060405180910390fd5b620009a86000838362000ac060201b60201c565b62000a0081600160008573ffffffffffffffffffffffffffffffffffffffff1673ffffffffffffffffffffffffffffffffffffffff16815260200190815260200160002062000ac560201b6200215a1790919060201c565b5062000a1e8183600262000ae760201b62002174179092919060201c565b50808273ffffffffffffffffffffffffffffffffffffffff16600073ffffffffffffffffffffffffffffffffffffffff167fddf252ad1be2c89b69c2b068fc378daa952ba7f163c4a11628f55a4df523b3ef60405160405180910390a45050565b600062000a958260000162000b2460201b60201c565b9050919050565b600062000ab982600262000b3560201b620021a91790919060201c565b9050919050565b505050565b600062000adf836000018360001b62000b5760201b60201c565b905092915050565b600062000b1b846000018460001b8473ffffffffffffffffffffffffffffffffffffffff1660001b62000bd160201b60201c565b90509392505050565b600081600001805490509050919050565b600062000b4f836000018360001b62000cb060201b60201c565b905092915050565b600062000b6b838362000cd360201b60201c565b62000bc657826000018290806001815401808255809150506001900390600052602060002001600090919091909150558260000180549050836001016000848152602001908152602001600020819055506001905062000bcb565b600090505b92915050565b600080846001016000858152602001908152602001600020549050600081141562000c7a5784600001604051806040016040528086815260200185815250908060018154018082558091505060019003906000526020600020906002020160009091909190915060008201518160000155602082015181600101555050846000018054905085600101600086815260200190815260200160002081905550600191505062000ca9565b8285600001600183038154811062000c8e57fe5b90600052602060002090600202016001018190555060009150505b9392505050565b600080836001016000848152602001908152602001600020541415905092915050565b600080836001016000848152602001908152602001600020541415905092915050565b828054600181600116156101000203166002900490600052602060002090601f016020900481019282601f1062000d3957805160ff191683800117855562000d6a565b8280016001018555821562000d6a579182015b8281111562000d6957825182559160200191906001019062000d4c565b5b50905062000d79919062000d7d565b5090565b5b8082111562000d9857600081600090555060010162000d7e565b5090565b6133a58062000dac6000396000f3fe608060405234801561001057600080fd5b506004361061014d5760003560e01c80636a627842116100c357806395d89b411161007c57806395d89b4114610848578063a22cb465146108cb578063b88d4fde1461091b578063c87b56dd14610a20578063e985e9c514610ac7578063f2fde38b14610b415761014d565b80636a627842146106bd5780636c0360eb1461070157806370a0823114610784578063715018a6146107dc57806388fdc42b146107e65780638da5cb5b146108145761014d565b806318160ddd1161011557806318160ddd146104c757806323b872dd146104e55780632f745c591461055357806342842e0e146105b55780634f6ccce7146106235780636352211e146106655761014d565b806301ffc9a71461015257806306fdde03146101b5578063081812fc14610238578063095ea7b3146102905780631483fb1e146102de575b600080fd5b61019d6004803603602081101561016857600080fd5b8101908080357bffffffffffffffffffffffffffffffffffffffffffffffffffffffff19169060200190929190505050610b85565b60405180821515815260200191505060405180910390f35b6101bd610bec565b6040518080602001828103825283818151815260200191508051906020019080838360005b838110156101fd5780820151818401526020810190506101e2565b50505050905090810190601f16801561022a5780820380516001836020036101000a031916815260200191505b509250505060405180910390f35b6102646004803603602081101561024e57600080fd5b8101908080359060200190929190505050610c8e565b604051808273ffffffffffffffffffffffffffffffffffffffff16815260200191505060405180910390f35b6102dc600480360360408110156102a657600080fd5b81019080803573ffffffffffffffffffffffffffffffffffffffff16906020019092919080359060200190929190505050610d29565b005b6104c5600480360360608110156102f457600080fd5b810190808035906020019064010000000081111561031157600080fd5b82018360208201111561032357600080fd5b8035906020019184600183028401116401000000008311171561034557600080fd5b91908080601f016020809104026020016040519081016040528093929190818152602001838380828437600081840152601f19601f820116905080830192505050505050509192919290803590602001906401000000008111156103a857600080fd5b8201836020820111156103ba57600080fd5b803590602001918460018302840111640100000000831117156103dc57600080fd5b91908080601f016020809104026020016040519081016040528093929190818152602001838380828437600081840152601f19601f8201169050808301925050505050505091929192908035906020019064010000000081111561043f57600080fd5b82018360208201111561045157600080fd5b8035906020019184600183028401116401000000008311171561047357600080fd5b91908080601f016020809104026020016040519081016040528093929190818152602001838380828437600081840152601f19601f820116905080830192505050505050509192919290505050610e6d565b005b6104cf61106c565b6040518082815260200191505060405180910390f35b610551600480360360608110156104fb57600080fd5b81019080803573ffffffffffffffffffffffffffffffffffffffff169060200190929190803573ffffffffffffffffffffffffffffffffffffffff1690602001909291908035906020019092919050505061107d565b005b61059f6004803603604081101561056957600080fd5b81019080803573ffffffffffffffffffffffffffffffffffffffff169060200190929190803590602001909291905050506110f3565b6040518082815260200191505060405180910390f35b610621600480360360608110156105cb57600080fd5b81019080803573ffffffffffffffffffffffffffffffffffffffff169060200190929190803573ffffffffffffffffffffffffffffffffffffffff1690602001909291908035906020019092919050505061114e565b005b61064f6004803603602081101561063957600080fd5b810190808035906020019092919050505061116e565b6040518082815260200191505060405180910390f35b6106916004803603602081101561067b57600080fd5b8101908080359060200190929190505050611191565b604051808273ffffffffffffffffffffffffffffffffffffffff16815260200191505060405180910390f35b6106ff600480360360208110156106d357600080fd5b81019080803573ffffffffffffffffffffffffffffffffffffffff1690602001909291905050506111c8565b005b61070961133d565b6040518080602001828103825283818151815260200191508051906020019080838360005b8381101561074957808201518184015260208101905061072e565b50505050905090810190601f1680156107765780820380516001836020036101000a031916815260200191505b509250505060405180910390f35b6107c66004803603602081101561079a57600080fd5b81019080803573ffffffffffffffffffffffffffffffffffffffff1690602001909291905050506113df565b6040518082815260200191505060405180910390f35b6107e46114b4565b005b610812600480360360208110156107fc57600080fd5b810190808035906020019092919050505061163f565b005b61081c611642565b604051808273ffffffffffffffffffffffffffffffffffffffff16815260200191505060405180910390f35b61085061166c565b6040518080602001828103825283818151815260200191508051906020019080838360005b83811015610890578082015181840152602081019050610875565b50505050905090810190601f1680156108bd5780820380516001836020036101000a031916815260200191505b509250505060405180910390f35b610919600480360360408110156108e157600080fd5b81019080803573ffffffffffffffffffffffffffffffffffffffff16906020019092919080351515906020019092919050505061170e565b005b610a1e6004803603608081101561093157600080fd5b81019080803573ffffffffffffffffffffffffffffffffffffffff169060200190929190803573ffffffffffffffffffffffffffffffffffffffff169060200190929190803590602001909291908035906020019064010000000081111561099857600080fd5b8201836020820111156109aa57600080fd5b803590602001918460018302840111640100000000831117156109cc57600080fd5b91908080601f016020809104026020016040519081016040528093929190818152602001838380828437600081840152601f19601f8201169050808301925050505050505091929192905050506118c4565b005b610a4c60048036036020811015610a3657600080fd5b810190808035906020019092919050505061193c565b6040518080602001828103825283818151815260200191508051906020019080838360005b83811015610a8c578082015181840152602081019050610a71565b50505050905090810190601f168015610ab95780820380516001836020036101000a031916815260200191505b509250505060405180910390f35b610b2960048036036040811015610add57600080fd5b81019080803573ffffffffffffffffffffffffffffffffffffffff169060200190929190803573ffffffffffffffffffffffffffffffffffffffff169060200190929190505050611c25565b60405180821515815260200191505060405180910390f35b610b8360048036036020811015610b5757600080fd5b81019080803573ffffffffffffffffffffffffffffffffffffffff169060200190929190505050611cb9565b005b6000806000837bffffffffffffffffffffffffffffffffffffffffffffffffffffffff19167bffffffffffffffffffffffffffffffffffffffffffffffffffffffff1916815260200190815260200160002060009054906101000a900460ff169050919050565b606060068054600181600116156101000203166002900480601f016020809104026020016040519081016040528092919081815260200182805460018160011615610100020316600290048015610c845780601f10610c5957610100808354040283529160200191610c84565b820191906000526020600020905b815481529060010190602001808311610c6757829003601f168201915b5050505050905090565b6000610c99826121c3565b610cee576040517f08c379a000000000000000000000000000000000000000000000000000000000815260040180806020018281038252602c81526020018061329a602c913960400191505060405180910390fd5b6004600083815260200190815260200160002060009054906101000a900473ffffffffffffffffffffffffffffffffffffffff169050919050565b6000610d3482611191565b90508073ffffffffffffffffffffffffffffffffffffffff168373ffffffffffffffffffffffffffffffffffffffff161415610dbb576040517f08c379a000000000000000000000000000000000000000000000000000000000815260040180806020018281038252602181526020018061331e6021913960400191505060405180910390fd5b8073ffffffffffffffffffffffffffffffffffffffff16610dda6121e0565b73ffffffffffffffffffffffffffffffffffffffff161480610e095750610e0881610e036121e0565b611c25565b5b610e5e576040517f08c379a00000000000000000000000000000000000000000000000000000000081526004018080602001828103825260388152602001806131ed6038913960400191505060405180910390fd5b610e6883836121e8565b505050565b610e997f511a61dda44b0ee02e52517a81435af0f945fd51728869895d357172de21c81360001b61163f565b610ec57fd2fd0c05fbd025e50f902649ea49b60a5783f75f9724e0d468cf51ac6ffe66b160001b61163f565b610ef17f5761116669f214cd604b101003c164f649258886c7590ec0f9e02422197b7b0d60001b61163f565b7fd0b4bb6c4e82ab4cb1abce8ec75c64d146f2791d3694c99caaf12b68d06f73f983838360405180806020018060200180602001848103845287818151815260200191508051906020019080838360005b83811015610f5d578082015181840152602081019050610f42565b50505050905090810190601f168015610f8a5780820380516001836020036101000a031916815260200191505b50848103835286818151815260200191508051906020019080838360005b83811015610fc3578082015181840152602081019050610fa8565b50505050905090810190601f168015610ff05780820380516001836020036101000a031916815260200191505b50848103825285818151815260200191508051906020019080838360005b8381101561102957808201518184015260208101905061100e565b50505050905090810190601f1680156110565780820380516001836020036101000a031916815260200191505b50965050505050505060405180910390a1505050565b60006110786002612145565b905090565b61108e6110886121e0565b826122a1565b6110e3576040517f08c379a000000000000000000000000000000000000000000000000000000000815260040180806020018281038252603181526020018061333f6031913960400191505060405180910390fd5b6110ee838383612395565b505050565b600061114682600160008673ffffffffffffffffffffffffffffffffffffffff1673ffffffffffffffffffffffffffffffffffffffff1681526020019081526020016000206125d890919063ffffffff16565b905092915050565b611169838383604051806020016040528060008152506118c4565b505050565b6000806111858360026125f290919063ffffffff16565b50905080915050919050565b60006111c18260405180606001604052806029815260200161324f60299139600261261e9092919063ffffffff16565b9050919050565b6111d06121e0565b73ffffffffffffffffffffffffffffffffffffffff16600a60009054906101000a900473ffffffffffffffffffffffffffffffffffffffff1673ffffffffffffffffffffffffffffffffffffffff1614611292576040517f08c379a00000000000000000000000000000000000000000000000000000000081526004018080602001828103825260208152602001807f4f776e61626c653a2063616c6c6572206973206e6f7420746865206f776e657281525060200191505060405180910390fd5b6112be7f5ad3cb0f8ce5da7363cc0b59b2eda68b775484fdbff6eba22e2927098c2ef5aa60001b61163f565b6112ea7f19df706a686e171c2ca552a2b1bc78f0dd12ab992adb469704697cb06187970460001b61163f565b6113167f02959acb06e851616b960fde31fb036812cc9c822768c61329f70e58de330ce160001b61163f565b61133a81611335600161132761106c565b611ec990919063ffffffff16565b611f51565b50565b606060098054600181600116156101000203166002900480601f0160208091040260200160405190810160405280929190818152602001828054600181600116156101000203166002900480156113d55780601f106113aa576101008083540402835291602001916113d5565b820191906000526020600020905b8154815290600101906020018083116113b857829003601f168201915b5050505050905090565b60008073ffffffffffffffffffffffffffffffffffffffff168273ffffffffffffffffffffffffffffffffffffffff161415611466576040517f08c379a000000000000000000000000000000000000000000000000000000000815260040180806020018281038252602a815260200180613225602a913960400191505060405180910390fd5b6114ad600160008473ffffffffffffffffffffffffffffffffffffffff1673ffffffffffffffffffffffffffffffffffffffff16815260200190815260200160002061263d565b9050919050565b6114bc6121e0565b73ffffffffffffffffffffffffffffffffffffffff16600a60009054906101000a900473ffffffffffffffffffffffffffffffffffffffff1673ffffffffffffffffffffffffffffffffffffffff161461157e576040517f08c379a00000000000000000000000000000000000000000000000000000000081526004018080602001828103825260208152602001807f4f776e61626c653a2063616c6c6572206973206e6f7420746865206f776e657281525060200191505060405180910390fd5b600073ffffffffffffffffffffffffffffffffffffffff16600a60009054906101000a900473ffffffffffffffffffffffffffffffffffffffff1673ffffffffffffffffffffffffffffffffffffffff167f8be0079c531659141344cd1fd0a4f28419497f9722a3daafe3b4186f6b6457e060405160405180910390a36000600a60006101000a81548173ffffffffffffffffffffffffffffffffffffffff021916908373ffffffffffffffffffffffffffffffffffffffff160217905550565b50565b6000600a60009054906101000a900473ffffffffffffffffffffffffffffffffffffffff16905090565b606060078054600181600116156101000203166002900480601f0160208091040260200160405190810160405280929190818152602001828054600181600116156101000203166002900480156117045780601f106116d957610100808354040283529160200191611704565b820191906000526020600020905b8154815290600101906020018083116116e757829003601f168201915b5050505050905090565b6117166121e0565b73ffffffffffffffffffffffffffffffffffffffff168273ffffffffffffffffffffffffffffffffffffffff1614156117b7576040517f08c379a00000000000000000000000000000000000000000000000000000000081526004018080602001828103825260198152602001807f4552433732313a20617070726f766520746f2063616c6c65720000000000000081525060200191505060405180910390fd5b80600560006117c46121e0565b73ffffffffffffffffffffffffffffffffffffffff1673ffffffffffffffffffffffffffffffffffffffff16815260200190815260200160002060008473ffffffffffffffffffffffffffffffffffffffff1673ffffffffffffffffffffffffffffffffffffffff16815260200190815260200160002060006101000a81548160ff0219169083151502179055508173ffffffffffffffffffffffffffffffffffffffff166118716121e0565b73ffffffffffffffffffffffffffffffffffffffff167f17307eab39ab6107e8899845ad3d59bd9653f200f220920489ca2b5937696c318360405180821515815260200191505060405180910390a35050565b6118d56118cf6121e0565b836122a1565b61192a576040517f08c379a000000000000000000000000000000000000000000000000000000000815260040180806020018281038252603181526020018061333f6031913960400191505060405180910390fd5b61193684848484612652565b50505050565b6060611947826121c3565b61199c576040517f08c379a000000000000000000000000000000000000000000000000000000000815260040180806020018281038252602f8152602001806132ef602f913960400191505060405180910390fd5b6060600860008481526020019081526020016000208054600181600116156101000203166002900480601f016020809104026020016040519081016040528092919081815260200182805460018160011615610100020316600290048015611a455780601f10611a1a57610100808354040283529160200191611a45565b820191906000526020600020905b815481529060010190602001808311611a2857829003601f168201915b50505050509050600060098054600181600116156101000203166002900490501415611a745780915050611c20565b600081511115611b4d576009816040516020018083805460018160011615610100020316600290048015611adf5780601f10611abd576101008083540402835291820191611adf565b820191906000526020600020905b815481529060010190602001808311611acb575b505082805190602001908083835b60208310611b105780518252602082019150602081019050602083039250611aed565b6001836020036101000a03801982511681845116808217855250505050505090500192505050604051602081830303815290604052915050611c20565b6009611b58846126c4565b6040516020018083805460018160011615610100020316600290048015611bb65780601f10611b94576101008083540402835291820191611bb6565b820191906000526020600020905b815481529060010190602001808311611ba2575b505082805190602001908083835b60208310611be75780518252602082019150602081019050602083039250611bc4565b6001836020036101000a038019825116818451168082178552505050505050905001925050506040516020818303038152906040529150505b919050565b6000600560008473ffffffffffffffffffffffffffffffffffffffff1673ffffffffffffffffffffffffffffffffffffffff16815260200190815260200160002060008373ffffffffffffffffffffffffffffffffffffffff1673ffffffffffffffffffffffffffffffffffffffff16815260200190815260200160002060009054906101000a900460ff16905092915050565b611cc16121e0565b73ffffffffffffffffffffffffffffffffffffffff16600a60009054906101000a900473ffffffffffffffffffffffffffffffffffffffff1673ffffffffffffffffffffffffffffffffffffffff1614611d83576040517f08c379a00000000000000000000000000000000000000000000000000000000081526004018080602001828103825260208152602001807f4f776e61626c653a2063616c6c6572206973206e6f7420746865206f776e657281525060200191505060405180910390fd5b600073ffffffffffffffffffffffffffffffffffffffff168173ffffffffffffffffffffffffffffffffffffffff161415611e09576040517f08c379a00000000000000000000000000000000000000000000000000000000081526004018080602001828103825260268152602001806131776026913960400191505060405180910390fd5b8073ffffffffffffffffffffffffffffffffffffffff16600a60009054906101000a900473ffffffffffffffffffffffffffffffffffffffff1673ffffffffffffffffffffffffffffffffffffffff167f8be0079c531659141344cd1fd0a4f28419497f9722a3daafe3b4186f6b6457e060405160405180910390a380600a60006101000a81548173ffffffffffffffffffffffffffffffffffffffff021916908373ffffffffffffffffffffffffffffffffffffffff16021790555050565b600080828401905083811015611f47576040517f08c379a000000000000000000000000000000000000000000000000000000000815260040180806020018281038252601b8152602001807f536166654d6174683a206164646974696f6e206f766572666c6f77000000000081525060200191505060405180910390fd5b8091505092915050565b600073ffffffffffffffffffffffffffffffffffffffff168273ffffffffffffffffffffffffffffffffffffffff161415611ff4576040517f08c379a00000000000000000000000000000000000000000000000000000000081526004018080602001828103825260208152602001807f4552433732313a206d696e7420746f20746865207a65726f206164647265737381525060200191505060405180910390fd5b611ffd816121c3565b15612070576040517f08c379a000000000000000000000000000000000000000000000000000000000815260040180806020018281038252601c8152602001807f4552433732313a20746f6b656e20616c7265616479206d696e7465640000000081525060200191505060405180910390fd5b61207c6000838361280b565b6120cd81600160008573ffffffffffffffffffffffffffffffffffffffff1673ffffffffffffffffffffffffffffffffffffffff16815260200190815260200160002061215a90919063ffffffff16565b506120e4818360026121749092919063ffffffff16565b50808273ffffffffffffffffffffffffffffffffffffffff16600073ffffffffffffffffffffffffffffffffffffffff167fddf252ad1be2c89b69c2b068fc378daa952ba7f163c4a11628f55a4df523b3ef60405160405180910390a45050565b600061215382600001612810565b9050919050565b600061216c836000018360001b612821565b905092915050565b60006121a0846000018460001b8473ffffffffffffffffffffffffffffffffffffffff1660001b612891565b90509392505050565b60006121bb836000018360001b61296d565b905092915050565b60006121d98260026121a990919063ffffffff16565b9050919050565b600033905090565b816004600083815260200190815260200160002060006101000a81548173ffffffffffffffffffffffffffffffffffffffff021916908373ffffffffffffffffffffffffffffffffffffffff160217905550808273ffffffffffffffffffffffffffffffffffffffff1661225b83611191565b73ffffffffffffffffffffffffffffffffffffffff167f8c5be1e5ebec7d5bd14f71427d1e84f3dd0314c0f7b2291e5b200ac8c7c3b92560405160405180910390a45050565b60006122ac826121c3565b612301576040517f08c379a000000000000000000000000000000000000000000000000000000000815260040180806020018281038252602c8152602001806131c1602c913960400191505060405180910390fd5b600061230c83611191565b90508073ffffffffffffffffffffffffffffffffffffffff168473ffffffffffffffffffffffffffffffffffffffff16148061237b57508373ffffffffffffffffffffffffffffffffffffffff1661236384610c8e565b73ffffffffffffffffffffffffffffffffffffffff16145b8061238c575061238b8185611c25565b5b91505092915050565b8273ffffffffffffffffffffffffffffffffffffffff166123b582611191565b73ffffffffffffffffffffffffffffffffffffffff1614612421576040517f08c379a00000000000000000000000000000000000000000000000000000000081526004018080602001828103825260298152602001806132c66029913960400191505060405180910390fd5b600073ffffffffffffffffffffffffffffffffffffffff168273ffffffffffffffffffffffffffffffffffffffff1614156124a7576040517f08c379a000000000000000000000000000000000000000000000000000000000815260040180806020018281038252602481526020018061319d6024913960400191505060405180910390fd5b6124b283838361280b565b6124bd6000826121e8565b61250e81600160008673ffffffffffffffffffffffffffffffffffffffff1673ffffffffffffffffffffffffffffffffffffffff16815260200190815260200160002061299090919063ffffffff16565b5061256081600160008573ffffffffffffffffffffffffffffffffffffffff1673ffffffffffffffffffffffffffffffffffffffff16815260200190815260200160002061215a90919063ffffffff16565b50612577818360026121749092919063ffffffff16565b50808273ffffffffffffffffffffffffffffffffffffffff168473ffffffffffffffffffffffffffffffffffffffff167fddf252ad1be2c89b69c2b068fc378daa952ba7f163c4a11628f55a4df523b3ef60405160405180910390a4505050565b60006125e783600001836129aa565b60001c905092915050565b6000806000806126058660000186612a2d565b915091508160001c8160001c9350935050509250929050565b6000612631846000018460001b84612ac6565b60001c90509392505050565b600061264b82600001612bbc565b9050919050565b61265d848484612395565b61266984848484612bcd565b6126be576040517f08c379a00000000000000000000000000000000000000000000000000000000081526004018080602001828103825260328152602001806131456032913960400191505060405180910390fd5b50505050565b6060600082141561270c576040518060400160405280600181526020017f30000000000000000000000000000000000000000000000000000000000000008152509050612806565b600082905060005b60008214612736578080600101915050600a828161272e57fe5b049150612714565b60608167ffffffffffffffff8111801561274f57600080fd5b506040519080825280601f01601f1916602001820160405280156127825781602001600182028036833780820191505090505b50905060006001830390508593505b600084146127fe57600a84816127a357fe5b0660300160f81b828280600190039350815181106127bd57fe5b60200101907effffffffffffffffffffffffffffffffffffffffffffffffffffffffffffff1916908160001a905350600a84816127f657fe5b049350612791565b819450505050505b919050565b505050565b600081600001805490509050919050565b600061282d8383612de6565b61288657826000018290806001815401808255809150506001900390600052602060002001600090919091909150558260000180549050836001016000848152602001908152602001600020819055506001905061288b565b600090505b92915050565b600080846001016000858152602001908152602001600020549050600081141561293857846000016040518060400160405280868152602001858152509080600181540180825580915050600190039060005260206000209060020201600090919091909150600082015181600001556020820151816001015550508460000180549050856001016000868152602001908152602001600020819055506001915050612966565b8285600001600183038154811061294b57fe5b90600052602060002090600202016001018190555060009150505b9392505050565b600080836001016000848152602001908152602001600020541415905092915050565b60006129a2836000018360001b612e09565b905092915050565b600081836000018054905011612a0b576040517f08c379a00000000000000000000000000000000000000000000000000000000081526004018080602001828103825260228152602001806131236022913960400191505060405180910390fd5b826000018281548110612a1a57fe5b9060005260206000200154905092915050565b60008082846000018054905011612a8f576040517f08c379a00000000000000000000000000000000000000000000000000000000081526004018080602001828103825260228152602001806132786022913960400191505060405180910390fd5b6000846000018481548110612aa057fe5b906000526020600020906002020190508060000154816001015492509250509250929050565b60008084600101600085815260200190815260200160002054905060008114158390612b8d576040517f08c379a00000000000000000000000000000000000000000000000000000000081526004018080602001828103825283818151815260200191508051906020019080838360005b83811015612b52578082015181840152602081019050612b37565b50505050905090810190601f168015612b7f5780820380516001836020036101000a031916815260200191505b509250505060405180910390fd5b50846000016001820381548110612ba057fe5b9060005260206000209060020201600101549150509392505050565b600081600001805490509050919050565b6000612bee8473ffffffffffffffffffffffffffffffffffffffff16612ef1565b612bfb5760019050612dde565b6060612d6563150b7a0260e01b612c106121e0565b888787604051602401808573ffffffffffffffffffffffffffffffffffffffff1681526020018473ffffffffffffffffffffffffffffffffffffffff16815260200183815260200180602001828103825283818151815260200191508051906020019080838360005b83811015612c94578082015181840152602081019050612c79565b50505050905090810190601f168015612cc15780820380516001836020036101000a031916815260200191505b5095505050505050604051602081830303815290604052907bffffffffffffffffffffffffffffffffffffffffffffffffffffffff19166020820180517bffffffffffffffffffffffffffffffffffffffffffffffffffffffff8381831617835250505050604051806060016040528060328152602001613145603291398773ffffffffffffffffffffffffffffffffffffffff16612f049092919063ffffffff16565b90506000818060200190516020811015612d7e57600080fd5b8101908080519060200190929190505050905063150b7a0260e01b7bffffffffffffffffffffffffffffffffffffffffffffffffffffffff1916817bffffffffffffffffffffffffffffffffffffffffffffffffffffffff191614925050505b949350505050565b600080836001016000848152602001908152602001600020541415905092915050565b60008083600101600084815260200190815260200160002054905060008114612ee55760006001820390506000600186600001805490500390506000866000018281548110612e5457fe5b9060005260206000200154905080876000018481548110612e7157fe5b9060005260206000200181905550600183018760010160008381526020019081526020016000208190555086600001805480612ea957fe5b60019003818190600052602060002001600090559055866001016000878152602001908152602001600020600090556001945050505050612eeb565b60009150505b92915050565b600080823b905060008111915050919050565b6060612f138484600085612f1c565b90509392505050565b6060612f2785612ef1565b612f99576040517f08c379a000000000000000000000000000000000000000000000000000000000815260040180806020018281038252601d8152602001807f416464726573733a2063616c6c20746f206e6f6e2d636f6e747261637400000081525060200191505060405180910390fd5b600060608673ffffffffffffffffffffffffffffffffffffffff1685876040518082805190602001908083835b60208310612fe95780518252602082019150602081019050602083039250612fc6565b6001836020036101000a03801982511681845116808217855250505050505090500191505060006040518083038185875af1925050503d806000811461304b576040519150601f19603f3d011682016040523d82523d6000602084013e613050565b606091505b5091509150811561306557809250505061311a565b6000815111156130785780518082602001fd5b836040517f08c379a00000000000000000000000000000000000000000000000000000000081526004018080602001828103825283818151815260200191508051906020019080838360005b838110156130df5780820151818401526020810190506130c4565b50505050905090810190601f16801561310c5780820380516001836020036101000a031916815260200191505b509250505060405180910390fd5b94935050505056fe456e756d657261626c655365743a20696e646578206f7574206f6620626f756e64734552433732313a207472616e7366657220746f206e6f6e20455243373231526563656976657220696d706c656d656e7465724f776e61626c653a206e6577206f776e657220697320746865207a65726f20616464726573734552433732313a207472616e7366657220746f20746865207a65726f20616464726573734552433732313a206f70657261746f7220717565727920666f72206e6f6e6578697374656e7420746f6b656e4552433732313a20617070726f76652063616c6c6572206973206e6f74206f776e6572206e6f7220617070726f76656420666f7220616c6c4552433732313a2062616c616e636520717565727920666f7220746865207a65726f20616464726573734552433732313a206f776e657220717565727920666f72206e6f6e6578697374656e7420746f6b656e456e756d657261626c654d61703a20696e646578206f7574206f6620626f756e64734552433732313a20617070726f76656420717565727920666f72206e6f6e6578697374656e7420746f6b656e4552433732313a207472616e73666572206f6620746f6b656e2074686174206973206e6f74206f776e4552433732314d657461646174613a2055524920717565727920666f72206e6f6e6578697374656e7420746f6b656e4552433732313a20617070726f76616c20746f2063757272656e74206f776e65724552433732313a207472616e736665722063616c6c6572206973206e6f74206f776e6572206e6f7220617070726f766564a2646970667358221220aa188fb7002289196cb8b113401007beed6994d6c2f827b628861e259ad0da8e64736f6c634300060c0033a26469706673582212200d699be2615397051a8f6539a3f85c7b69e71816344d4918fea155371326c90e64736f6c634300060c0033",
  "immutableReferences": {},
  "source": "// SPDX-License-Identifier: BUSL-1.1\npragma solidity >=0.4.22 <0.8.0;\n\nimport './BasicToken.sol';\nimport './NonFungibleToken.sol';\n//import './Pausafe.sol';\n\ncontract TokenDeployer {\nfunction c_0x0a5a2010(bytes32 c__0x0a5a2010) public pure {}\n\n\n    function deploy(\n        address factory,\n        string memory tokenName,\n        string memory tokenSymbol,\n        string memory tokenType\n    ) public returns (address deployedToken) {c_0x0a5a2010(0x420650ec8dcb572a464910a6f6009cda3c1b032f559d9bd6ea5c1763db501ae2); /* function */ \n\n\nc_0x0a5a2010(0x18c076541a98a5d98d0cd3b7796ced319f4e05cf2982e5d5b4450028f1f7a8aa); /* line */ \n        c_0x0a5a2010(0xb1e24e5d5d3c89d1dc92a8cd4d08344bcb7efd6b383d4506ffdd73766c9ad24e); /* statement */ \naddress a = 0x0000000000000000000000000000000000000000;\n\nc_0x0a5a2010(0x4af68b1ca87081c3f2bac2f5a26065dbcaad28c7dc50fcade9e3d2f8d18dfaf3); /* line */ \n        c_0x0a5a2010(0x101af73028f22399103b187bd97e4a1a1ae5dde8253dfd3dee88d2db8af0fe03); /* statement */ \nif(keccak256(abi.encodePacked((tokenType))) == keccak256(abi.encodePacked(('Basic')))){c_0x0a5a2010(0x0675d253025e085976730d497dabdfae48d9ddd4ddf7dab100565cb9d6d353dc); /* branch */ \n\nc_0x0a5a2010(0xa0aef26940b403580b4ccc0fd40d7fa754bdf58ee56f0a08e0879201b88f65a5); /* line */ \n            c_0x0a5a2010(0x73452379807ab03f13cbe9f5f5a86e3cdb32496f2c2d9035f8843817cff21851); /* statement */ \na = address(new BasicToken(tokenName, tokenSymbol));\n        }\n        \n        else {c_0x0a5a2010(0x77191307fd2a6601677f4b25a0d541419aa39a3f634d286e3040e5f1f28ab5aa); /* statement */ \nc_0x0a5a2010(0xa2b9e5aa5d0daf13309a7be1bfbf4af7a4b496288d8d12b3931cb9548938c9a6); /* branch */ \nif(keccak256(abi.encodePacked((tokenType))) == keccak256(abi.encodePacked(('NFT')))){c_0x0a5a2010(0x74b57c00f3ba4ab79b1ae516781f09876a54cce974ea2c4e25bcdba77ff08241); /* branch */ \n\nc_0x0a5a2010(0xf4c2cbd4c17beab4fbbd6d23a3da7b8c5ff848becb6e19668ffb8585fe37e2c9); /* line */ \n            c_0x0a5a2010(0x193b62b3bfe6e2876b80b028eac866c7f21cca6b724506000aec2de735a90b62); /* statement */ \na = address(new NonFungibleToken(tokenName, tokenSymbol));\n        }else { c_0x0a5a2010(0x3cbf9557581295d8c317159d6d9b90bdd83f53e20120092f059ec4b2f43b9b04); /* branch */ \n}}\n\nc_0x0a5a2010(0xb12e221acfb101a77a2e5ac2470ae09b5e83694fa867abc2a5038119f87e0949); /* line */ \n        c_0x0a5a2010(0xdc73da3b80412fe2b687af51cbf5c98a918caf5879dbc757791f9908f350d215); /* statement */ \nreturn a;\n            \n    }\n}",
  "sourcePath": "/home/saqib/Saqib/Factory/truffle-blueprint-master/.coverage_contracts/TokenDeployer.sol",
  "compiler": {
    "name": "solc",
    "version": "0.6.12+commit.27d51765.Emscripten.clang"
  },
  "schemaVersion": "3.4.1",
  "updatedAt": "2021-09-13T12:33:47.877Z",
  "devdoc": {
    "kind": "dev",
    "methods": {},
    "version": 1
  },
  "userdoc": {
    "kind": "user",
    "methods": {},
    "version": 1
  }
}